:020000040800F2
:10000000C0080020B1050008850300088703000828
:100010008B0300088F030008930300080000000012
:10002000000000000000000000000000970300082E
:1000300099030008000000009B0300089D030008CE
:10004000CB050008CB050008CB050008CB05000850
:10005000CB050008CB050008CB050008CB05000840
:10006000CB050008CB050008CB050008CB05000830
:10007000CB050008CB050008CB050008CB05000820
:10008000CB050008CB050008CB050008CB05000810
:10009000CB050008CB050008CB050008CB05000800
:1000A000CB050008CB050008CB050008CB050008F0
:1000B000553A0008493A00085D3A0008CB050008A7
:1000C000CB050008CB050008CB050008CB050008D0
:1000D000CB05000889290008CB050008492800083D
:1000E000CB050008CB050008CB050008CB050008B0
:1000F000CB050008CB050008CB050008CB050008A0
:10010000CB050008CB050008CB050008CB0500088F
:10011000CB050008CB050008CB050008CB0500087F
:10012000CB050008CB050008CB050008CB0500086F
:10013000CB050008CB050008CB050008CB0500085F
:10014000CB050008CB050008CB050008CB0500084F
:10015000CB050008CB050008CB050008CB0500083F
:10016000CB050008CB050008CB050008CB0500082F
:10017000CB050008CB050008CB050008CB0500081F
:10018000CB050008CB05000800F002F800F067F886
:100190000AA090E8000C82448344AAF10107DA45E2
:1001A00001D100F05CF8AFF2090EBAE80F0013F0CD
:1001B000010F18BFFB1A43F00103184774D3000066
:1001C00094D300000A444FF0000C10F8013B13F0E8
:1001D000070408BF10F8014B1D1108BF10F8015BA0
:1001E000641E05D010F8016B641E01F8016BF9D193
:1001F00013F0080F1EBF10F8014BAD1C0C1B09D1EA
:100200006D1E58BF01F801CBFAD505E014F8016B5B
:1002100001F8016B6D1EF9D59142D6D370470000ED
:100220000023002400250026103A28BF78C1FBD8FF
:10023000520728BF30C148BF0B607047642908F0DF
:10024000AF85782908F0E885632908F083860020C7
:1002500070471FB50BF0C7FB1FBD10B510BD08F0F0
:10026000BBFE1146FFF7F5FF00F008F808F0D9FED5
:1002700003B4FFF7F2FF03BC02F084FA1CB54FF49D
:10028000A06000F0B5F9A82002F0FAF902F07AFCBB
:1002900003F0FCFB02F056FC4FF4165002F07FFA1C
:1002A0004FF4E13002F01EFB05F064FB00202A4908
:1002B00008804FF41673192211464FF47A5002F059
:1002C0000BFE47E0A023E62232210A2008F011FBB2
:1002D00022A018210B46D222CDE900101421502073
:1002E00008F0B3FC1F201C49088004F04BFE1D4899
:1002F000006805280AD11CA018213223D222CDE99A
:1003000000105A213B2008F0A0FC0DE015480068C1
:10031000042809D117A018213223D222CDE90010D8
:100320005A213B2008F091FC00201821CDE9001053
:1003300012480A23B42102683B2008F027FC002061
:1003400018210323CDE900100D48FA21026864202A
:1003500008F01CFCB6E70000BC01002053544154D7
:10036000453A0000B80100206761726167655F6F00
:100370007574000046494E44494E4700280000204D
:1003800034000020704700BFFEE700BFFEE700BF5B
:10039000FEE700BFFEE770477047704770470000F8
:1003A0000CB50020019000907648006840F4803041
:1003B0007449086000BF7348006800F40030009082
:1003C0000198401C0190009818B90198B0F5A04F11
:1003D000F1D16C48006800F4003010B101200090A9
:1003E00001E0002000900098012846D16548403087
:1003F000006840F0805063494031086062480068FE
:1004000040F44040604908605E48083000685D493B
:10041000083108600846006840F40040086008465B
:10042000006840F4A05008605848091F0860081F81
:10043000006840F08070091F086000BF51480068E4
:1004400000F000700028F9D040F2057050490860B3
:100450004C480830006820F003004A490831086021
:100460000846006840F00200086000BF45480830B8
:10047000006800F00C000828F8D10CBD10B5454804
:10048000006840F47000434908603E48006840F04E
:1004900001003C49086000203A49083108603948A9
:1004A00000683D490840374908603C48091D08601C
:1004B000081F006820F48020091F086000203149CF
:1004C0000C310860FFF76CFF4FF000603149803954
:1004D000086010BD70B50020002202230024022114
:1004E000284D08352D6805F00C0020B1042806D0F1
:1004F000082834D107E02A4D2A4E356033E02A4DD2
:10050000284E35602FE01F4D2D1D2D68C5F38054FA
:100510001C4D2D1D2D6805F03F0154B1224DB5FB3A
:10052000F1F5184E361D3668C6F3881605FB06F23F
:1005300009E01B4DB5FBF1F5124E361D3668C6F3CA
:10054000881605FB06F20F4D2D1D2D68C5F30145DC
:100550006D1C6B00B2FBF3F5124E356003E0104DDD
:10056000104E356000BF00BF064D08352D68C5F33D
:1005700003150E4E705D0B4D2D68C540094E35605C
:1005800070BD000000380240007000400854400771
:10059000003C024088ED00E0FFFFF6FE1030002432
:1005A0000024F4000000002000127A000400002063
:1005B0000948804709480047FEE7FEE7FEE7FEE7F7
:1005C000FEE7FEE7FEE7FEE7FEE7FEE70448054933
:1005D000054A064B704700007D04000889010008A9
:1005E000C0020020C0080020C0040020C004002079
:1005F00032490143324A1160704770B5002100232F
:100600000F22C4781CB32E4C246804F4E064C4F5B3
:10061000E064C4F30721C1F10404E3B20A41447861
:100620009C40E1B28478144021430C07210E254CF4
:1006300005786155047804F01F050124AC40057865
:100640006D11AD0005F1E025C5F8004109E0047821
:1006500004F01F050124AC401B4D0678761145F8C7
:10066000264070BD194A0A400243154B1B1F1A60F1
:10067000704739B1124A121D12680243104B1B1DFC
:100680001A6006E00E4A121D126882430C4B1B1DB5
:100690001A607047042808D14FF0E021096941F041
:1006A00004014FF0E022116107E04FF0E0210969F9
:1006B00021F004014FF0E022116170470000FA05BB
:1006C0000CED00E000E400E080E100E080FFFF1FAF
:1006D00030B943F2DB028100A1F1C0410A6005E0BC
:1006E00043F2D2028100A1F1C0410A606FF0704272
:1006F000411C8900A1F1C0410A608100A1F1C04103
:10070000C1F804217047D0E901121143C2681143B6
:10071000026911434269114382691143C26911435D
:10072000026A1143426A1143826A1143C26A114349
:10073000026B114302689200A2F1C042116081680D
:1007400008290BD101688900A1F1C041096841F075
:10075000400201688900A1F1C0410A60416B09684B
:10076000426B526841EA0211426B926841EA0221EF
:10077000426B928941EA0241426B128A41EA02517C
:10078000426B127D41EA0261426B92691143026839
:10079000521C9200A2F1C0421160C16AB1F5804FB3
:1007A0001BD1816B0968826B526841EA0211826B2E
:1007B000926841EA0221826B128A41EA0251826BFD
:1007C000127D41EA0261826B9269114302689200D4
:1007D000A2F1C042C2F8041107E06FF07042016854
:1007E0008900A1F1C041C1F80421704700210160D6
:1007F0000221416000218160C1600161416181612C
:10080000C16101624FF4805141624900816200215F
:10081000C1620163F84941638163704751B182004D
:10082000A2F1C042126842F001038200A2F1C0426C
:10083000136009E08200A2F1C0421268EF4B1A4037
:100840008300A3F1C0431A60704710280AD1182111
:100850004FF020421166402151664FF0FC31916605
:10086000D16610E01821E64A116040214FF0204285
:10087000C2F884104FF0FC31E14A083211604FF0A9
:100880002042C2F88C10704730B5002100220023AE
:10089000446844F0080485682C43C5682C43056906
:1008A0002C43456944EA4524856944EA4531C469D5
:1008B0002468C5696D6844EA0524C5692D8944EA40
:1008C0000544C5692D7B44EA0562046A2468056A0B
:1008D0006D6844EA0524056A2D8944EA0544056AE1
:1008E0002D7B44EA05630468102C05D14FF02044A9
:1008F0002166A266E36608E0C14C21604FF0204407
:10090000C4F88820BE4C0C34236030BD1021016037
:10091000002141608160C160016141618161FC2110
:10092000C2691160C2695160C2699160C269D160D7
:10093000026A1160026A5160026A9160026AD160C3
:10094000704799B1102808D14FF02042126E42F042
:1009500004024FF020431A661DE0A94A126842F0D3
:1009600004024FF02043C3F8802014E0102809D17E
:100970004FF02042126EA14BDB1E1A404FF0204375
:100980001A6608E09E4A12689C4BDB1E1A404FF024
:100990002043C3F88020704799B1102808D14FF048
:1009A0002042126E42F040024FF020431A661DE0D2
:1009B000934A126842F040024FF02043C3F880206F
:1009C00014E0102809D14FF02042126E8B4B3F3BB0
:1009D0001A404FF020431A6608E0894A1268874B94
:1009E0003F3B1A404FF02043C3F880207047014638
:1009F0000020102903D14FF02042506F02E0804ABE
:100A000014321068704718207D492031086000209A
:100A10000906C1F8A4004FF0FC307949283108607C
:100A2000091D0860091D08607047016841F0100148
:100A3000426841EA4221826841EA4231704A2032EA
:100A40001160C1680968C268526841EA0221C2683F
:100A5000128941EA0241C268127B41EA0261684A96
:100A600028321160016909680269526841EA02216D
:100A70000269128941EA02410269127B41EA02617C
:100A80005F4A2C321160416909684269526841EA43
:100A900002214269128941EA02414269127B41EA1C
:100AA00002614FF02042C2F8B0107047002101608F
:100AB00041608160FC21C2681160C2685160C268F7
:100AC0009160C268D1600269116002695160026977
:100AD00091600269D1604269116042695160426966
:100AE00091604269D160704748B145492031096839
:100AF00041F004014FF02042C2F8A01009E0404943
:100B0000203109683D4AD21E11404FF02042C2F800
:100B1000A010704710B5F2B1102807D14FF0204354
:100B20005B6E0B434FF02044636632E0B0F5807F8C
:100B300008D1334B1B1D1B680B434FF02044C4F8F6
:100B4000843026E02E4B24331B680B434FF02044A7
:100B5000C4F8A4301DE0102807D14FF020435B6E8D
:100B60008B434FF02044636613E0B0F5807F08D1DB
:100B7000234B1B1D1B688B434FF02044C4F884306B
:100B800007E01F4B24331B688B434FF02044C4F80D
:100B9000A43010BD10B5024600200023102A03D156
:100BA0004FF02044636E09E0B2F5807F03D1144C0E
:100BB000241D236802E0124C2434236803EA010454
:100BC0000CB1012000E0002010BD102807D14FF02B
:100BD0002042526E8A434FF020435A6619E0B0F526
:100BE000807F0FD1064A121D12688A434FF02043BE
:100BF000C3F884200DE00000E0BA0008FEFF0F00FB
:100C0000800000A0234A12688A434FF02043C3F8B3
:100C1000A420704770B50246002000230024002560
:100C2000102A03D14FF02046736E08E0B2F5807FA2
:100C300003D1184E203E336801E0164E336803EAB4
:100C4000010403EAD10514B10DB1012000E0002038
:100C500070BD102808D14FF02042526E22EAD10216
:100C60004FF020435A6614E0B0F5807F09D1094A5D
:100C7000203A126822EAD1024FF02043C3F88420C0
:100C800007E0044A126822EAD1024FF02043C3F879
:100C9000A4207047A40000A010B5044698488442E0
:100CA00008D10121084600F086FB0021012000F058
:100CB00082FB76E09348844208D10121022000F0B3
:100CC0007AFB0021022000F076FB6AE08E48844225
:100CD00008D10121042000F06EFB0021042000F067
:100CE0006AFB5EE08948844208D10121082000F0B7
:100CF00062FB0021082000F05EFB52E08448844241
:100D000008D10121102000F056FB0021102000F036
:100D100052FB46E07F48844208D10121202000F0A8
:100D20004AFB0021202000F046FB3AE07A4884424A
:100D300008D10121402000F03EFB0021402000F0BE
:100D40003AFB2EE07548844208D10121802000F052
:100D500032FB0021802000F02EFB22E0704884420C
:100D600008D10121801500F026FB0021A01500F01C
:100D700022FB16E06B48844208D10121401500F0A7
:100D80001AFB0021601500F016FB0AE06648844259
:100D900007D10121001500F00EFB0021201500F005
:100DA0000AFB10BDF0B50A4600210023002400BF55
:100DB0003DE0012505FA01F3156805EA03049C42AC
:100DC00034D105684F000326BE40B5430560157950
:100DD0004E00B5400668354305601579012D02D0F7
:100DE0001579022D16D185684F000326BE40B54304
:100DF000856055794E00B540866835438560456805
:100E000001268E40B5434560456896798E40B6B25E
:100E100035434560C5684F000326BE40B543C560F5
:100E2000D5794E00B540C6683543C560491C1029C8
:100E3000BFD3F0BD4FF6FF71016000210171417118
:100E40008171C171704708B54FF480320092009AE9
:100E50000A430092009AC261C161009AC261C269EC
:100E60000092C269009208BD0246002013690B403F
:100E70000BB1012000E0002070470146086980B2F4
:100E800070470246002053690B400BB1012000E07F
:100E9000002070470146486980B27047018370475F
:100EA000418370470AB1018300E04183704741618B
:100EB000704742694A4042617047F0B50023002400
:100EC0004D07ED0E02FA05F3CE1000F1200555F89E
:100ED00026504E07F70E0F26BE40B543CF1000F147
:100EE000200646F82750CE1000F1200555F8265070
:100EF00045EA0304CE1000F1200545F82640F0BD78
:100F0000000002400004024000080240000C0240C1
:100F1000001002400014024000180240001C024071
:100F2000002002400024024000280240F9480068E6
:100F300040F00100F74908600020F64908310860D8
:100F4000F4480068F4490840F2490860F348091D74
:100F50000860F348EF4984310860F0481038091DF3
:100F60000860EC48006820F48020EA49086000200E
:100F7000E8490C310860E7498C310860704700216E
:100F8000E44A921C117011460870704710B5014672
:100F90000022002300204A11012A02D1DD4C2368DF
:100FA00008E0022A03D1DB4C7034236802E0D94CFC
:100FB0007434236801F01F02012494401C400CB1DA
:100FC000012000E0002010BD38B500200090002472
:100FD000002500BF3120FFF7D9FF05460098401CCF
:100FE00000900098B0F5A04F01D0002DF2D0312034
:100FF000FFF7CCFF08B1012400E00024204638BDF3
:1010000001460020C34A106820F0F80040EAC10001
:1010100010607047C349086070470021BD4A7032B4
:1010200011701170012802D004280AD104E00121B6
:10103000B84A7032117005E00521B64A703211705D
:1010400000E000BF00BF7047B7490860704770B547
:10105000049C41EA82150126C6EB530645EA064583
:10106000054345EA0465AB4E361D356070BDAD499C
:1010700008667047820142EA0172A64B84331A6007
:101080007047A8498866704710B5830143EA016339
:1010900043EA02739F4C8834236010BDA14908675E
:1010A0007047A049C864704702460020994B083336
:1010B000186820F0EC6042EA01031843954B0833AE
:1010C0001860704702460020924B0833186820F0E1
:1010D000784042EA010318438E4B0833186070478A
:1010E000014600208B4A0832106820F003000843B4
:1010F0001060704787480830006800F00C007047A7
:1011000001460020834A0832106820F0F0000843AE
:1011100010607047014600207E4A0832106820F4B3
:10112000E05008431060704701460020794A0832B9
:10113000106820F4604040EAC10010607047F0B5CC
:10114000002100220024022500260223714F0837C7
:101150003F6807F00C0121B1042905D0082937D1D7
:1011600005E0724F076036E0714F076033E0694F6A
:101170003F1D3F68C7F38056664F3F1D3F6807F02D
:101180003F036EB16A4FB7FBF3F7DFF888C10CF18C
:10119000040CDCF800C0CCF3881C07FB0CF40CE05A
:1011A000624FB7FBF3F7DFF86CC10CF1040CDCF80D
:1011B00000C0CCF3881C07FB0CF4564F3F1D3F6862
:1011C000C7F301477F1C7D00B4FBF5F7076002E021
:1011D000564F076000BF00BF4E4F08373F6807F00B
:1011E000F0010909534F7A5C0768D7404760494FBF
:1011F00008373F6807F4E051890A4E4F7A5C476828
:10120000D7408760434F08373F6807F46041490B78
:10121000484F7A5C4768D740C760F0BD002100F4B2
:101220004072B2F5407F0AD13A4A0832116821F47F
:10123000F811414A02401143364A08321160354ADA
:1012400070321268C0F30B031A43324B70331A60CA
:101250007047354944390860704733494039086060
:10126000704736490860704701460020294A8C3291
:10127000106820F01F004A1E1043264A8C3210606E
:10128000704701460020234A8C32106820F4F85041
:101290004A1E40EA02201F4A8C3210607047014605
:1012A00000201C4A8C32106820F440100843106063
:1012B000704701460020174A8C32106820F4400025
:1012C00008431060704701460020124A8C321068B3
:1012D00020F4403008431060704719490860704797
:1012E00039B10C4A3032126802430A4B30331A606B
:1012F00006E0084A303212688243064B30331A60E7
:101300007047F9B1034A343212680243014B343357
:101310001A601CE000380240FFFFF6EA103000249B
:101320000030002000004742800E47420024F400B5
:1013300000127A0014000020FFFCFF0F5C014742FE
:10134000E01147428F4A126882438E4B1A60704701
:1013500039B18C4A121D126802438A4B1B1D1A6058
:1013600006E0884A121D12688243864B1B1D1A60D4
:10137000704739B1834A0C3212680243814B0C33F7
:101380001A6006E07F4A0C32126882437D4B0C33B0
:101390001A60704739B17B4A103212680243794BA8
:1013A00010331A6006E0774A103212688243754B98
:1013B00010331A60704739B1724A243A12680243F6
:1013C000704B243B1A6006E06E4A243A126882434E
:1013D0006C4B243B1A60704739B16A4A203A126854
:1013E0000243684B203B1A6006E0664A203A1268C6
:1013F0008243644B203B1A60704739B1614A1C3A02
:10140000126802435F4B1C3B1A6006E05D4A1C3ABF
:10141000126882435B4B1C3B1A60704739B1594AD2
:10142000143A12680243574B143B1A6006E0554ABF
:10143000143A12688243534B143B1A60704739B117
:10144000504A103A126802434E4B103B1A6006E0B5
:101450004C4A103A126882434A4B103B1A6070475C
:1014600039B1484A1C3212680243464B1C331A6099
:1014700006E0444A1C3212688243424B1C331A6015
:10148000704739B13F4A2032126802433D4B203346
:101490001A6006E03B4A203212688243394B2033FF
:1014A0001A60704739B1374A243212680243354B0B
:1014B00024331A6006E0334A243212688243314BE7
:1014C00024331A60704739B12E4A2C321268024315
:1014D0002C4B2C331A6006E02A4A2C3212688243C5
:1014E000284B2C331A60704739B1264A30321268C3
:1014F0000243244B30331A6006E0224A303212682D
:101500008243204B30331A607047012808D11D49AF
:101510003C31096841F008011A4A3C32116007E089
:1015200018493C31096821F00801164A3C32116023
:10153000704739B1134A273A12780243114B273BBF
:101540001A7006E00F4A273A127882430D4B273B68
:101550001A7070470B484030006840F080700949AD
:1015600040310860704701460020064A283A126858
:101570000A400AB1012000E00020704701492639E5
:10158000087070473438024010B50446FE48844263
:1015900008D101210846FFF752FF00210120FFF783
:1015A0004EFF9DE0B4F1804F08D101210846FFF7BE
:1015B00035FF00210120FFF731FF91E0F34884421D
:1015C00008D101210220FFF729FF00210220FFF7A7
:1015D00025FF85E0EE48844208D101210420FFF771
:1015E0001DFF00210420FFF719FF79E0E94884423C
:1015F00008D101210820FFF711FF00210820FFF783
:101600000DFF6DE0E448844208D101211020FFF76E
:1016100005FF00211020FFF701FF61E0DF48844251
:1016200008D101212020FFF7F9FE00212020FFF73B
:10163000F5FE55E0DA48844208D101210220FFF787
:10164000FEFE00210220FFF7FAFE49E0D548844261
:1016500009D101210804FFF7F2FE00214FF4803088
:10166000FFF7EDFE3CE0D048844209D10121480457
:10167000FFF7E5FE00214FF40030FFF7E0FE2FE01A
:10168000CA48844209D101218804FFF7D8FE00210D
:101690004FF48020FFF7D3FE22E0C548844208D1F2
:1016A00001214020FFF7BAFE00214020FFF7B6FEDF
:1016B00016E0C048844208D101218020FFF7AEFE29
:1016C00000218020FFF7AAFE0AE0BB48844207D130
:1016D00001218015FFF7A2FE0021A015FFF79EFE55
:1016E00010BD00220288A84B98420ED0AC4B984205
:1016F0000BD0B0F1804F08D0A44B984205D0A44B3A
:10170000984202D0A34B984204D14FF68F731A40EF
:101710004B881A43A04B984207D0A04B984204D064
:101720004FF6FF431A400B891A4302804B68C3628D
:101730000B880385944B984202D0994B984201D173
:101740008B7A03860123838270474FF0FF3141601B
:101750000021018001814180817270470185828270
:1017600070470A46002101884FF68F7319401143D4
:101770000180704741627047C16270470146486A04
:1017800070470146088D704721B1028842F002027D
:10179000028004E002884FF6FD731A400280704711
:1017A00021B1028842F00402028004E002884FF670
:1017B000FB731A400280704721B1028842F0800218
:1017C000028004E002884FF67F731A40028070475F
:1017D00002884FF6F7731A40028002880A4302809B
:1017E000704702884FF6FF431A40028002880A437E
:1017F0000280704721B1028842F00102028004E0B9
:1018000002884FF6FE731A400280704770B50024BC
:1018100000220023058C4FF6FE7635400584028CAD
:101820008388048B4FF68F752C40B51E2C400D8895
:101830002C43751E2A408D892A434D882A43524DD8
:10184000A84202D0564DA84213D14FF6F7752A4050
:10185000CD892A434FF6FB752A408D882A434FF6DF
:10186000FF652B404FF6FF552B400D8A2B434D8AC9
:101870002B43838004838D684563028470BD70B5FB
:10188000002400220023058C4FF6EF7635400584B6
:10189000028C8388048B48F6FF752C404FF6FF4579
:1018A0002C400D884FF6FF7606EA05252C434FF6AF
:1018B000DF752A408D8906EA05152A434D8806EA18
:1018C00005152A43304DA84202D0354DA8421DD1FE
:1018D0004FF67F752A40CD894FF6FF7606EA05154B
:1018E0002A434FF6BF752A408D8806EA05152A431C
:1018F0004FF6FF352B404FF2FF752B400D8A06EA5D
:1019000085052B434D8A06EA85052B438380048396
:101910008D688563028470BD70B5002400220023A9
:10192000058C4FF6FF6635400584028C8388848BD6
:101930004FF68F752C404FF6FC752C400D882C43CC
:101940004FF6FF552A408D894FF6FF7606EA0525AA
:101950002A434D8806EA05252A430B4DA84202D0AA
:101960000F4DA84238D14FF2FF752A40CD894FF66E
:10197000FF7606EA05252A434FF6FF352A408D8873
:1019800006EA05252A4319E0000001400004004052
:1019900000080040000C004000100040001400400F
:1019A0000004014000400140004401400048014063
:1019B00000180040001C0040002000404EF6FF755B
:1019C0002B404DF6FF752B400D8A06EA05152B437B
:1019D0004D8A06EA05152B43838084838D68C56391
:1019E000028470BD70B5002200230024058C4EF6E1
:1019F000FF7635400584038C8488828B48F6FF751A
:101A00002A404FF6FF452A400D884FF6FF7606EA3A
:101A100005252A434DF6FF752B408D8906EA0535CD
:101A20002B434D8806EA05352B43FE4DA84202D0D4
:101A3000FD4DA84208D14BF6FF752C400D8A4FF69C
:101A4000FF7606EA85152C43848082838D680564C1
:101A5000038470BD0021018041808180816081818B
:101A6000C18101824182704770B503460020002485
:101A70001846183001258D40ACB21D8CA5431D843D
:101A800009B108290AD100EB610005684FF68F768D
:101A9000354005600568154305600FE00D1FC5F36F
:101AA0004E052844056848F6FF7635400560056810
:101AB0004FF6FF7606EA02263543056070BD4163A6
:101AC000704781637047C1637047016470470A467D
:101AD0000021018B4FF68F7319401143018370472A
:101AE0000A460021018B48F6FF7319404FF6FF7339
:101AF00003EA02231943018370470A460021818BC0
:101B00004FF68F7319401143818370470A460021B5
:101B1000818B48F6FF7319404FF6FF7303EA0223E7
:101B20001943818370470A460021018B4FF6F773F2
:101B300019401143018370470A460021018B4FF27F
:101B4000FF7319404FF6FF7303EA02231943018321
:101B500070470A460021818B4FF6F77319401143F5
:101B6000818370470A460021818B4FF2FF73194031
:101B70004FF6FF7303EA02231943818370470A4635
:101B80000021018B4FF6FB7319401143018370470D
:101B90000A460021018B4FF6FF3319404FF6FF73C1
:101BA00003EA02231943018370470A460021818B0F
:101BB0004FF6FB7319401143818370470A46002199
:101BC000818B4FF6FF3319404FF6FF7303EA022370
:101BD0001943818370470A460021018B4FF67F73BA
:101BE00019401143018370470A460021018BC1F35C
:101BF0000E014FF6FF7303EA022319430183704776
:101C00000A460021818B4FF67F731940114381836F
:101C100070470A460021818BC1F30E014FF6FF7316
:101C200003EA02231943818370470A460021018C8D
:101C30004FF6FD7319401143018470470A46002195
:101C4000018C4FF6F77319401143018470470A461F
:101C50000021018C4FF6DF7319404FF6FF7303EA42
:101C600002131943018470470A460021018C4FF684
:101C70007F7319404FF6FF7303EA0213194301847F
:101C800070470A460021018C4FF6FF5319404FF66A
:101C9000FF7303EA02231943018470470A460021B7
:101CA000018C4FF2FF7319404FF6FF7303EA0223D2
:101CB0001943018470470A460021018C4DF6FF73D9
:101CC00019404FF6FF7303EA02331943018470474A
:101CD00030B5002301248C40A3B2048C9C430484BF
:101CE000048C02FA01F5ADB22C43048430BD30B54A
:101CF000002304248C40A3B2048C9C430484048CF1
:101D000002FA01F5ADB22C43048430BD828B4FF250
:101D1000FF331A408283828B4FF6FF7303EA01235D
:101D20001A4382837047F0B50C4615460021002205
:101D30000026078C4EF6FF7C07EA0C070784818B90
:101D4000028C4FF6FF7707EA043640F6FF4739402A
:101D50004FF6FF7707EA052739434FF6FF7707EA83
:101D60000337394345F6FF773A4046F480573A4304
:101D700081830284F0BD828B4FF6F3731A40828315
:101D8000828B0A4382837047F0B50C4615460021CA
:101D900000220026078C4FF6FF6C07EA0C07078429
:101DA000818B028C4FF6FF7707EA04264FF60C77FB
:101DB00039404FF6FF7707EA03172F4339434FF2B5
:101DC000FF573A4046F480773A4381830284F0BD5E
:101DD000028B4FF2FF331A400283028B4FF6FF73E0
:101DE00003EA01231A4302837047F0B50C461546F7
:101DF000002100220026078C4FF6EF7C07EA0C0733
:101E00000784018B028C4FF6FF7707EA041640F631
:101E1000FF4739404FF6FF7707EA033739434FF65C
:101E2000FF7703E0000001400004014007EA0527B6
:101E300039434FF65F773A4046F010073A43018343
:101E40000284F0BD028B4FF6F3731A400283028BBB
:101E50000A4302837047F0B50C4615460021002264
:101E6000068C4FF6FE773E400684018B028C4FF6BF
:101E70000C7631407E1C06EA03162E4331434FF6A2
:101E8000F576324044F00106324301830284F0BD0E
:101E900070B505460C46208850B92389A288618810
:101EA0002846FFF7D8FFE1882846FFF7CBFF25E05B
:101EB000208804280AD12389A28861882846FFF750
:101EC00094FFE1882846FFF783FF17E02088082861
:101ED0000AD12389A28861882846FFF755FFE18847
:101EE0002846FFF748FF09E02389A2886188284631
:101EF000FFF719FFE1882846FFF708FF70BD0021B2
:101F000001804180012181800021C18001817047D1
:101F10002DE9F04105460C4600260127608808B9E6
:101F2000022600E00026A088012801D1022700E057
:101F300001272088A0B92389A28861882846FFF755
:101F40008AFFE1882846FFF77DFF23893A4631461C
:101F50002846FFF74AFFE1882846FFF739FF13E0DC
:101F60002389A28861882846FFF73FFFE188284639
:101F7000FFF72EFF23893A4631462846FFF76BFFCD
:101F8000E1882846FFF75EFFBDE8F0810146486B17
:101F900070470146886B70470146C86B7047014621
:101FA000086C70470A884B881A438B881A43CB8881
:101FB0001A430B891A434B891A438B891A43A0F899
:101FC000442070470021018041808180C1800181CF
:101FD00041818181704731B1B0F8442042F4004220
:101FE000A0F8442005E0B0F84420C2F30E02A0F8A7
:101FF0004420704721B1828842F00402828004E0CC
:1020000082884FF6FB731A408280704721B1828824
:1020100042F00102828004E082884FF6FE731A408B
:10202000828070471AB183890B43838102E08389E0
:102030008B43838170478182704702460020138A58
:102040000B400BB1012000E000207047CA43028220
:10205000704730B50246002000230024158A05EAA7
:102060000103958905EA010413B10CB1012000E0D8
:10207000002030BDCA430282704741EA0203A0F843
:10208000483070471AB183890B43838102E083890A
:102090008B438381704721B1828842F0080282809D
:1020A00004E082884FF6F7731A40828070470189F6
:1020B0004FF6F8721140018170470A4600210189EC
:1020C0004FF68F73194011430181704730B50446B4
:1020D0000D4629462046FFF7F0FF208940F0070013
:1020E000208130BD2DE9F04104460D4616461F46BD
:1020F000602D06D13B46012231462046FFF775FE92
:1021000005E03B46012231462046FFF7A4FE294662
:102110002046FFF7D2FF208940F007002081BDE86C
:10212000F08130B50C4600210189C9B24FF6FF7528
:1021300005EA0325154325432943018130BD2DE9D7
:10214000F04105460E4617469846002443463A4657
:1021500031462846FFF7E5FF2C894FF6F87004401A
:1021600044F007044FF68F70044044F070042C8153
:10217000BDE8F081F0B504460D4616461F463B46C5
:10218000324629462046FFF7CCFF208940F48040A4
:102190002081F0BD82884FF68F731A40828082883A
:1021A0000A438280704702894FF6F8731A40028111
:1021B00002890A430281704702894FF67F731A40F1
:1021C000028102890A4302817047F0B50C46154628
:1021D0001E460021002200230189028B038C4FF64A
:1021E000F877394021434FF6FC473A4040F2011757
:1021F0003A434FF6DD773B404FF6FF7707EA061785
:102200002F433B43018102830384F0BD21B18288C7
:1022100042F08002828004E082884FF67F731A4089
:1022200082807047A0F850107047000010B5044637
:10223000FA48844208D101211020FFF700F900215B
:102240001020FFF7FCF857E0F548844209D101213E
:102250004804FFF7E3F800214FF40030FFF7DEF801
:102260004AE0F048844209D101218804FFF7D6F8FA
:1022700000214FF48020FFF7D1F83DE0EA48844286
:1022800009D10121C804FFF7C9F800214FF400204B
:10229000FFF7C4F830E0E548844209D10121080580
:1022A000FFF7BCF800214FF48010FFF7B7F823E0E8
:1022B000DF48844208D101212020FFF7C0F8002127
:1022C0002020FFF7BCF817E0DA48844209D1012149
:1022D0008807FFF7A3F800214FF08040FFF79EF832
:1022E0000AE0D548844207D101214005FFF796F85E
:1022F00000216005FFF792F810BD2DE9FF47054664
:102300000E460024A14600BFA046B08900B100BF20
:102310002C8A24F44054F08804432C82AC8941F286
:102320000C608443B08831890843718908430443B1
:10233000AC81AC8A24F44074B0890443AC82684612
:10234000FEF7FDFEB548854202D0B948854202D16C
:10235000DDF80C9001E0DDF80890A88900F4004059
:1023600040B109EBC90000EB091031684900B0FB2E
:10237000F1F707E009EBC90000EB091031688900AB
:10238000B0FBF1F76420B7FBF0F0040120096421F1
:1023900001FB1078A88900F4004040B1322000EB26
:1023A000C800B0FBF1F000F00700044308E0322061
:1023B00000EB08106421B0FBF1F000F00F000443C3
:1023C0002C81BDE8FF874FF4165101600021818008
:1023D000C18001810C21418100218181704710B5AC
:1023E00002460020108A20F470600B884C8823433A
:1023F0008C882343CC8823431843108210BD0021CE
:10240000018041808180C180704721B1828942F47E
:102410000052828104E082894DF6FF731A40828166
:102420007047028B02F47F420283028B0A430283CD
:10243000704721B1828942F40042828103E082899F
:10244000C2F30E028281704721B1828A42F4006297
:10245000828204E0828A4FF2FF731A4082827047C0
:10246000C1F308028280704701468888C0F30800E3
:102470007047028A4FF6F0731A400282028A0A43BA
:102480000282704721B1828942F00202828104E017
:1024900082894FF6FD731A408281704782894FF21C
:1024A000FF731A40828182890A4382817047028ABF
:1024B0004FF6DF731A400282028A0A430282704793
:1024C00021B1028A42F48042028204E0028A4BF681
:1024D000FF731A4002827047818941F001018181B6
:1024E000704721B1828A42F00802828204E0828A27
:1024F0004FF6F7731A4082827047028BD2B2028382
:10250000028B42EA01220283704721B1828A42F0A3
:102510002002828204E0828A4FF6DF731A408282B0
:10252000704721B1828A42F01002828204E0828ADE
:102530004FF6EF731A4082827047828A4FF6FB7320
:102540001A408282828A0A438282704721B1828A3B
:1025500042F00202828204E0828A4FF6FD731A4042
:10256000828270471AB1838A0B43838202E0838A96
:102570008B4383827047F0B5034600240026002574
:10258000002040F66A17B94200D100BF1846C1F3D7
:10259000421401F01F06012707FA06F5012C01D1AC
:1025A0000C3004E0022C01D1103000E014301AB1DC
:1025B00007682F43076002E00768AF430760F0BD7C
:1025C00002460020B1F5007F00D100BF13880B4008
:1025D0000BB1012000E00020704701F40072B2F559
:1025E000007F00D100BFCA430280704770B5024629
:1025F000002400230025002040F66A16B14200D1D5
:1026000000BFC1F3421501F01F03012606FA03F3D0
:10261000012D13D19689334017E0000000100140CE
:102620000044004000480040004C00400050004082
:102630000014014000780040007C0040022D02D1CF
:10264000168A334001E0968A33400C12012606FABE
:1026500004F41688344013B10CB1012000E00020CE
:1026600070BD10B50022002340F66A14A14200D1CB
:1026700000BF0A1201249440A3B2DC43048010BDC1
:1026800010B504466FF00400FEF704F8E11704EB00
:102690005171C1F3C701394A11701046007800EB3F
:1026A0004001C1EBC0104FF6FF7101EAC000344990
:1026B000088010BD0146314A12784A434FF0E023AA
:1026C0005A6100229A611A46126942F001021A61A7
:1026D00000BF4FF0E022106900F001021AB100F4CF
:1026E0008032002AF5D04FF0E022126922F0010278
:1026F0004FF0E0231A6100229A6170470146204A98
:1027000012884A434FF0E0235A6100229A611A4628
:10271000126942F001021A6100BF4FF0E022106915
:1027200000F001021AB100F48032002AF5D04FF017
:10273000E022126922F001024FF0E0231A61002228
:102740009A61704770B504464FF4077094FBF0F03F
:10275000C6B24FF4077094FBF0F100FB114085B254
:1027600005E04FF40770FFF7C9FF701EC6B2002ED8
:10277000F7D115B12846FFF7C1FF70BD2400002036
:102780002600002000BF704700BFD14A128802F027
:102790004002002AF9D0C2B2CD4B9A80704710B5E2
:1027A00088B0044601218804FEF7E3FD01210220E0
:1027B000FEF796FD07220A21C648FEF77EFB072298
:1027C0000B21C448FEF779FB4FF4406006900220CD
:1027D0008DF81C008DF81D0000208DF81E000120D2
:1027E0008DF81F0006A9BB48FEF7DCFA0294002012
:1027F000ADF80C00ADF80E00ADF81000ADF8140007
:102800000C20ADF8120002A9B348FFF776FD0121B4
:10281000B148FFF7FAFD4021AF48FFF7DEFE012285
:1028200040F22551AC48FFF7A6FE27208DF80400A2
:1028300001208DF805008DF806008DF8070001A82D
:10284000FDF7DBFE08B010BD10B540F22551A248DF
:10285000FFF7CCFE002844D020219F48FFF7BDFEA3
:102860009E480068062830D19B48FFF7FDFD9C4933
:102870000A680968491C9A4B19609A4941F8220074
:1028800008460068A32802D0002019460860944832
:102890000068022806D193484068B32802D000207F
:1028A0008F4908608E48006806281AD18D48406913
:1028B000C32816D18B4880688B4908608948C06856
:1028C00048608848006988600BE08348FFF7CCFDCA
:1028D0008649086000BF40217F48FFF771FE01284C
:1028E000F9D110BD10B588B0044601210846FEF7A5
:1028F000F7FC01211020FEF74DFD072209217C483D
:10290000FEF7DBFA07220A217948FEF7D6FA4FF4E0
:10291000C060069002208DF81C008DF81D0000207C
:102920008DF81E0001208DF81F0006A97048FEF7E3
:1029300039FA02940020ADF80C00ADF80E00ADF8A5
:102940001000ADF814000C20ADF8120002A9604888
:10295000FFF7D3FC012240F225515D48FFF70BFE43
:1029600025208DF8040002208DF805008DF8060062
:1029700001208DF8070001A8FDF73FFE0121544812
:10298000FFF743FD08B010BD10B540F22551504887
:10299000FFF72CFE20B140F225514D48FFF761FEB4
:1029A00010BD70B505465348007870B92C2D0CD178
:1029B000012050490870504802780078401C4E4B66
:1029C00018704E4820F8125081E04A4800780128DB
:1029D0000ED1122D0CD102204649087046480278CB
:1029E0000078401C444B1870444820F812506EE0A8
:1029F00040480078022839D13F4802780078401CCE
:102A00003D4B18703D4820F81250184600780628B3
:102A100001DAFF2D5BD10320364908703648007873
:102A2000001F364911F81000354908703248007807
:102A3000C01E324911F81000324908702E48007843
:102A4000801E2E4911F810002F4908702C4801787B
:102A50002EA006F03BF92B48017830A006F036F99D
:102A60002948017832A006F031F930E02148007899
:102A700003281DD120480078401E204931F810005D
:102A80005B2805D100201C4908701A4908701EE017
:102A900000201849087018490870002405E000203B
:102AA000164921F81400601CC4B20A2CF7DB0EE0B2
:102AB00000201049087010490870002405E000202B
:102AC0000E4921F81400601CC4B20A2CF7DB70BD5B
:102AD000001001400004024000480040B8010020FE
:102AE00054000020C00100202800002034000020F5
:102AF000000002405900002058000020D8010020AA
:102B00003B000020390000203A000020D1D5C9AB9D
:102B1000D6D6C0E03A20256320202000D6D0D0C4ED
:102B200078D7F8B1EAA3BA2564202020000000007D
:102B3000D6D0D0C479D7F8B1EAA3BA25640D0A205B
:102B4000202000001CB501212020FEF7C9FB4FF416
:102B5000C060009001208DF8040000208DF8060070
:102B600003208DF8050001208DF807006946044810
:102B7000FEF718F94FF4C0610148FEF78FF91CBD4C
:102B8000001402401CB501212020FEF7A9FB012101
:102B90001020FEF7A5FB01210846FEF7A1FB4FF42C
:102BA000C050009001208DF8040000208DF8060030
:102BB00003208DF8050001208DF807006946FE48C6
:102BC000FEF7F0F842F2200000906946FB48FEF75D
:102BD000E9F84FF4106000906946F848FEF7E2F813
:102BE0000C2000906946F648FEF7DCF81CBD2DE984
:102BF000F05F2DED088B05460C4690461E46F148C9
:102C0000007818B1BDEC088BBDE8F09F002E06DA05
:102C10004FF40061E848FEF741F9764204E04FF4D2
:102C20000061E548FEF73CF9012D08D1A81EE649F0
:102C30004861022008704FF47A70486090E0002DDF
:102C40007ED000EE106AB8EEC00ADFEDE00A80EE3A
:102C5000801ABDEEC10ADC4880ED040A00EE104A7D
:102C6000B8EE400ADFEDDA0A80EE801A11EE10BAF3
:102C7000584608F047FE41EC1B0BB0EE4B0AF0EE55
:102C80006B0A07F059FBB0EE40AAF0EE60AA9FED88
:102C9000D10B53EC102B51EC1A0B08F03DFB41EC1F
:102CA000190B9FEDCE0B53EC102B08F0DDF841EC27
:102CB000180B08F06DFAC449486000EE104AB8EEEF
:102CC000400ADFEDC80A20EE200AB2EE041AC0EE78
:102CD000010A06FB06F000EE100AB8EEC00A80EE0C
:102CE000201ABCEEC10A10EE107A07B9012705FBC5
:102CF00008F004EB0801B0FBF1F9B9F1000F01D1C4
:102D00004FF00109B94504D8A9EB0500AE49C860E8
:102D100006E007FB04F0B0FBF8F04042AA49C860A7
:102D2000A948C06818B94FF0FF30A749C860A64845
:102D3000C0682844A449886008464068096900E0E2
:102D40000EE0884206DCA04800699F4948600320E5
:102D5000087002E001209C49087000209A494861EF
:102D6000012098490870A048FEF708FD1FFA80FA74
:102D70009548D0F804B00BEBDB700AEB60019A4881
:102D8000FEF79DFE012202219748FFF74BF9012231
:102D900000219548FEF79CFF01219348FEF72AFD8C
:102DA00000BF2FE72DE9F04104460D4616460027E7
:102DB000012C03D1C1028048FEF770F824B94FF40A
:102DC00000617D48FEF76CF8002709E03046FFF708
:102DD00071FC7948406980F04000774948617F1C68
:102DE00005EBC50000EB0510B7EBC01FEED9BDE841
:102DF000F0812DE9F04104460D4616460027012CCE
:102E000003D120216D48FEF749F81CB920216B48F9
:102E1000FEF746F8002709E03046FFF74BFC66480E
:102E2000406980F00200644948617F1C05EBC500E1
:102E300000EB0510B7EBC01FEED9BDE8F0812DE91E
:102E4000F04104460D4616460027012C03D101022D
:102E50005A48FEF723F824B94FF480715748FEF71B
:102E60001FF8002709E03046FFF724FC524840696C
:102E700080F08000504948617F1C05EBC50000EBE5
:102E80000510B7EBC01FEED9BDE8F0812DE9F04188
:102E900004460D4616460027012C03D1042148485C
:102EA000FDF7FCFF1CB904214548FDF7F9FF002799
:102EB00009E03046FFF7FEFB3F48406980F0200004
:102EC0003D4948617F1C05EBC50000EB0510B7EBE1
:102ED000C01FEED9BDE8F0812DE9F05F2DED088B24
:102EE00005460C4690461E463648007818B1BDECA3
:102EF000088BBDE8F09F002E05DA20212F48FDF752
:102F0000CDFF764203E020212C48FDF7C9FF012DBB
:102F100008D1A81E35494861022008704FF47A7024
:102F20004860ACE0002D46D000EE106AB8EEC00A52
:102F3000DFED260A80EE801ABDEEC10A2B4880ED37
:102F4000040A00EE104AB8EE400ADFED210A80EED6
:102F5000801A11EE10BA584608F0D4FC41EC1B0B55
:102F6000B0EE4B0AF0EE6B0A07F0E6F9B0EE40AABD
:102F7000F0EE60AA9FED170B53EC102B51EC1A0BDF
:102F800008F0CAF941EC190B9FED140B53EC102B10
:102F900007F06AFF41EC180B08F0FAF81349486093
:102FA00000EE104AB8EE400ADFED0E0A20EE200ACD
:102FB000B2EE041A1CE062E000000240001402407D
:102FC000001002405E000020EC010020FF519947F4
:102FD0000040444400000000008100410000000067
:102FE00000002440C2F5483F0004004004020020D5
:102FF000C0EE010A06FB06F000EE100AB8EEC00AA9
:1030000080EE201ABCEEC10A10EE107A07B9012733
:1030100005FB08F004EB0801B0FBF1F9B9F1000F72
:1030200001D14FF00109B94504D8A9EB0500F549D4
:10303000C86006E007FB04F0B0FBF8F04042F1493D
:10304000C860F048C06818B94FF0FF30ED49C8605B
:10305000EC48C0682844EB49886008464068096924
:10306000884206DCE7480069E649486003200870AA
:1030700002E00120E34908700020E2494861012094
:10308000E14908708007FEF779FB1FFA80FADF48F4
:10309000D0F804B00BEBDB700AEB60014FF080401E
:1030A000FEF70FFD012204210807FEF7BBFF0122F6
:1030B00004210807FEF70CFE01218807FEF79AFBA2
:1030C00000BF14E72DE9F05F2DED088B05460C4697
:1030D00090461E46CC48007818B1BDEC088BBDE880
:1030E000F09F002E06DA4FF48071C948FDF7D6FE36
:1030F000764204E04FF48071C548FDF7D1FE012D02
:1031000008D1A81EC3494861022008704FF47A70A4
:10311000486090E0002D7DD000EE106AB8EEC00A45
:103120005FED560A80EE801ABDEEC10AB94880ED07
:10313000040A00EE104AB8EE400A5FED5B0A80EE2A
:10314000801A11EE10BA584608F0DCFB41EC1B0B5C
:10315000B0EE4B0AF0EE6B0A07F0EEF8B0EE40AAC4
:10316000F0EE60AA1FED650B53EC102B51EC1A0B1F
:1031700008F0D2F841EC190B1FED680B53EC102B43
:1031800007F072FE41EC180B08F002F8A149486004
:1031900000EE104AB8EE400A5FED6E0A20EE200AFB
:1031A000B2EE041AC0EE010A06FB06F000EE100AA9
:1031B000B8EEC00A80EE201ABCEEC10A10EE107AFA
:1031C00007B9012705FB08F004EB0801B0FBF1F992
:1031D000B9F1000F01D14FF00109B94504D8A9EBAD
:1031E00005008C49C86006E007FB04F0B0FBF8F06E
:1031F00040428849C8608748C06818B94FF0FF301E
:103200008449C8608348C068284482498860084669
:10321000406800E00FE00969884206DC7D480069EB
:103220007C4948600320087002E001207949087059
:103230000020784948610120734908707648FEF7FC
:103240009DFA1FFA80FA7348D0F804B00BEBDB70DC
:103250000AEB60017048FEF734FC012204216E483D
:10326000FEF7E0FE012204216B48FEF731FD01214B
:103270006948FEF7BFFA6948006808B9012000E014
:1032800000206649086000BF27E71CB500200190B8
:103290000090002402216048FEF7DBFE01287DD16A
:1032A0005E48006808B9012000E000205B49086022
:1032B0005B48D0F8A80208B9012000E00020574977
:1032C000091D086002215448FEF7D4FE5248FEF75B
:1032D00055FA01904D49486800EBD071019A02EB14
:1032E000610100914C480099FEF7E9FB4D480078D8
:1032F000401C4C490870084600780228CFD10020B5
:1033000008704248007830B101281AD0022878D0DD
:10331000032815D15FE00020434908604349086055
:1033200002213D48FEF7A6FE002211463A48FEF76C
:10333000CFFC00213848FEF75DFA002032490870C2
:10334000ABE039480068401C374908602F484069A5
:10335000401C2E49486108464068344909680222E9
:1033600002FB0011294840698000401C91FBF0F0ED
:1033700026498988081A84B2244840682B4909687C
:1033800002FB0011214840698000401C91FBF0F2D3
:1033900000FB1210254908601C4800E080E08068AE
:1033A00021490968884206D81848C0681749486109
:1033B000022008700EE015480069A0420ADB1C4894
:1033C00004801248008A84B2002018490860032053
:1033D0000E49087061E014480068401C12490860FA
:1033E0000A48008A84B2094880680968884207D878
:1033F0000648C068054948610D48048802200870E5
:103400004BE017E0040200205E000020EC010020E9
:10341000001402401C02002000040040A48242422A
:103420000080424270000020680000206C000020F4
:1034300064000020F6480068401CF5490860F54823
:103440004069401CF349486108464068F2490968F0
:10345000022202FB0011EF4840698000401C91FBF2
:10346000F0F0EC498988081A84B2EA484068EA49D1
:10347000096802FB0011E74840698000401C91FB8D
:10348000F0F200FB1210E4490860E24840690028AD
:1034900002DB0020DF49087000BF00BFDD48446048
:1034A0001CBD1CB5002001900090002404210807D9
:1034B000FEF7CFFD01287CD1D848006808B901206B
:1034C00000E00020D5490860D548D0F8A80208B926
:1034D000012000E00020D149091D086004210807EF
:1034E000FEF7C8FD4FF08040FEF748F90190CD4946
:1034F000486800EBD071019A02EB61010091CA4962
:10350000009808604FF080400099FEF7DAFAC7484B
:103510000078401CC5490870084600780228CAD1C6
:1035200000200870BF48007830B101281BD0022865
:103530007AD0032816D160E00020BD490860BD495B
:10354000086004210807FEF795FD00220421080702
:10355000FEF7BEFB00214FF08040FEF74BF9002044
:10356000B549087093E0B2480068401CB049086053
:10357000AC484069401CAB49486108464068AD49C9
:103580000968022202FB0011A64840698000401C25
:1035900091FBF0F0A3498988081A84B2A1484068D9
:1035A000A449096802FB00119E4840698000401C44
:1035B00000E06FE091FBF0F200FB12109D49086003
:1035C000984880689A490968884206D89548C06832
:1035D00094494861022008700EE092480069A042B8
:1035E0000ADB964804808F48008A84B20020914903
:1035F000086003208B49087049E08D480068401C32
:103600008B4908608748008A84B2864880680968C8
:10361000884207D88348C06882494861874804883F
:103620000220087033E0FFE781480068401C8049B1
:1036300008607C484069401C7A49486108464068F7
:103640007C490968022202FB00117648406980002B
:10365000401C91FBF0F073498988081A84B27148C4
:1036600040687449096802FB00116E484069800097
:10367000401C91FBF0F200FB12106E490860694893
:103680004069002802DB00206649087000BF00BFC7
:10369000644844601CBD1CB50020019000900024CB
:1036A00004216748FEF7D5FC01287DD15B480068FE
:1036B00008B9012000E00020584908605848D0F8B7
:1036C000A80208B9012000E000205449091D086043
:1036D00004215B48FEF7CEFC5948FEF74FF80190F5
:1036E0005849486800EBD071019A02EB61010091E2
:1036F00053480099FEF7E5F953480078401C5249B9
:103700000870084600780228CFD1002008704D4884
:10371000007830B101281AD0022878D0032815D1BA
:103720005FE0002049490860494908600421494890
:10373000FEF7A0FC002204214648FEF7C9FA00214A
:103740004448FEF757F800203B490870B9E03F486D
:103750000068401C3D4908603A484069401C3949AE
:103760004861084640683A490968022202FB001194
:10377000344840698000401C91FBF0F03149898851
:10378000081A84B22F4840683149096802FB0011C9
:103790002C4840698000401C91FBF0F200FB1210A5
:1037A0002B490860274800E08EE0806827490968B7
:1037B000884206D82348C068224948610220087020
:1037C0000EE020480069A0420ADB234804801D481F
:1037D000008A84B200201E4908600320194908703D
:1037E0006FE01A480068401C184908601548008AB4
:1037F00084B2144880680968884207D81148C068B4
:1038000010494861144804880220087059E025E0F6
:1038100068000020EC0100206C000020A4824242DD
:103820000080424204020020600000207C00002052
:1038300074000020780000205E000020720000204C
:10384000000400401C0200208800002080000020AE
:1038500084000020000800407E00002081480068AD
:10386000401C8049086080484069401C7E4948618E
:10387000084640687D490968022202FB00117A4827
:1038800040698000401C91FBF0F077498988081A54
:1038900084B2754840687549096802FB0011724896
:1038A00040698000401C91FBF0F200FB12106F4950
:1038B00008606D484069002802DB00206A490870F2
:1038C00000BF00BF684844601CBD2DE9F04F89B0BF
:1038D00006460F469046322008900790152415257D
:1038E000002005900490039002900190214604EB83
:1038F000D1725210284605EBD07302EB6302F31924
:1039000008FB123904EBD172521005EBD07302EBB5
:103910006302F31B08FB123A04EBD172521005EB61
:10392000D07302EB6302F31908FB023B04EBD17284
:10393000521005EBD07302EB6302F31B08FB02325B
:103940000692B9F1000F07DA4FF400614848FDF71D
:10395000A5FAC9F1000903E020214548FDF7A0FAC6
:10396000BAF1000F06DA20214248FDF797FACAF1B2
:10397000000A03E020213F48FDF792FABBF1000F57
:1039800007DA4FF480713B48FDF78AFACBF1000B60
:1039900004E04FF480713748FDF780FA069800285C
:1039A00007DA04213448FDF77BFA06984042069076
:1039B00003E004213048FDF771FA09EBD97040109B
:1039C000401E81B200222D48CDF80090FDF7C6FEC2
:1039D000AAF1010081B200222948FDF7BFFEABF138
:1039E000010081B200222748FDF7B8FE0698401E6C
:1039F00081B200222448FDF7B1FE09B0BDE8F08F86
:103A000010B500211E48FDF7F5FE00211B48FDF70B
:103A1000F1FE00211C48FDF7EDFE00211948FDF7DD
:103A2000E9FE10BD10B501211548FDF7E3FE0121A7
:103A30001248FDF7DFFE01211348FDF7DBFE0121EF
:103A40001048FDF7D7FE10BD10B5FFF724FEFFF7B5
:103A50001CFC10BD10B5FFF724FD10BD10B5FFF71D
:103A60001AFE10BD800000201C02002084000020EF
:103A70000000024000140240001002400004004018
:103A800000480140004401400040014000B58BB0B7
:103A900001210420FDF77EFC01210846FDF769FCA9
:103AA00001210804FDF776FC01210220FDF718FC36
:103AB00001210846FDF714FC01210820FDF710FC48
:103AC00001210220FDF755FC02220621FE48FDF7E8
:103AD000F4F901221146FC48FDF7EFF90222072113
:103AE000FA48FDF7EAF903220521F948FDF7E5F95F
:103AF000E220099002208DF8280003208DF829008B
:103B000000208DF82A0001208DF82B0009A9EF482C
:103B1000FDF748F909A9EF48FDF744F909A9EA4872
:103B2000FDF740F9EC48FEF7C2FA4FF08040FEF78F
:103B3000BEFAEA48FEF7BBFAE948FEF7B8FA5320A6
:103B4000ADF818000020ADF81A004FF6FF7007908E
:103B50000020ADF820008DF8220006A9DE48FDF710
:103B6000C0FD06A94FF08040FDF7BBFD00208DF899
:103B70002200ADF82000ADF81A00A720ADF818001B
:103B80004FF6FF70079006A9D548FDF7AAFD302033
:103B9000ADF804000120ADF806000020ADF81000DB
:103BA000039001A9CC48FDF731FE01A9CA48FDF7F1
:103BB00066FE01A94FF08040FDF761FE01A9C748EC
:103BC000FDF75DFE7020ADF804000120ADF80600A1
:103BD0000020ADF81000039001A9C148FDF716FEC2
:103BE0000021BD48FDF79FFF0021BB48FDF7A4FF62
:103BF00000214FF08040FDF79FFF0021B848FDF7FE
:103C000092FF00221146B448FEF762F80022042118
:103C1000B148FEF75DF8002204210807FEF758F8C6
:103C200000220821AF48FEF753F80221AA48FEF708
:103C30000DFA0421A848FEF709FA0421A748FEF767
:103C400005FA0221A648FEF701FA04210807FEF74B
:103C5000FDF901220221A048FEF7E4F90122022128
:103C60009F48FEF7DFF9012204219B48FEF7DAF9AD
:103C7000012204210807FEF7D5F94FF4A060FCF7F4
:103C8000B7FC1D208DF8000001208DF803000020F6
:103C90008DF801008DF802006846FCF7AEFC182094
:103CA0008DF8000001208DF803008DF801008DF8DB
:103CB00002006846FCF7A1FC1E208DF800000120E0
:103CC0008DF8030000208DF8010001208DF802001E
:103CD0006846FCF792FC01208DF803008DF8010086
:103CE0008DF802001C208DF800006846FCF785FC6A
:103CF0000BB000BD00B58BB001214804FDF74AFBB5
:103D000001218804FDF746FB01210804FDF742FB71
:103D100001212020FDF7E4FA01210846FDF7E0FA31
:103D200001211020FDF7DCFA01210220FDF721FB23
:103D3000022206216448FDF7C0F8032207216248E9
:103D4000FDF7BBF8032206215F48FDF7B6F8032212
:103D500005215F48FDF7B1F8E220099002208DF8B7
:103D6000280003208DF8290000208DF82A0001206A
:103D70008DF82B0009A95448FDF714F809A95448F7
:103D8000FDF710F809A95848FDF70CF85320ADF8D5
:103D900018000020ADF81A0040F2F3100790002040
:103DA000ADF8200006A94C48FDF79BFCA720ADF814
:103DB000180006A94D48FDF794FC06A94C48FDF7EC
:103DC00090FC06A94648FDF78CFC6020ADF8040085
:103DD0000120ADF806000020ADF81000322003905D
:103DE00001A93D48FDF712FD01A94048FDF70EFD70
:103DF00001A93F48FDF70AFD01A93948FDF706FD75
:103E000008213548FDF78FFE08213548FDF78BFE68
:103E100008213648FDF787FE08213548FDF783FE67
:103E200001212D48FDF7C8FC01212D48FDF7C4FCF8
:103E300001212E48FDF7C0FC01212D48FDF7BCFCF7
:103E400001212548FDF7D6FC01212548FDF7D2FCCC
:103E500001212748FDF7CEFC01212448FDF7CAFCCB
:103E60000BB000BD30B58BB004460D4601210420D7
:103E7000FDF77FFA01210820FDF732FA02220C211A
:103E80001448FDF71AF84FF48050099002208DF87D
:103E9000280003208DF8290000208DF82A00012039
:103EA0008DF82B0009A90B48FCF77CFFA8B2ADF8F0
:103EB00018000020ADF81A000794ADF8200006A9FC
:103EC0000648FDF70EFC15E0000002400004024029
:103ED00000100240000C02400004004000080040B6
:103EE00000400140000C0040001402400048014026
:103EF000004401406020ADF804000120ADF8060048
:103F00000220ADF8100001A96C48FDF77FFC0821E4
:103F10006A48FDF708FE01216848FDF74DFC0121C4
:103F20006648FDF767FC0BB030BD00B58BB00121D2
:103F30000420FDF71EFA01210820FDF7D1F94FF406
:103F40007040069002208DF81C0000208DF81E00A5
:103F500001208DF81F0003208DF81D0006A9584888
:103F6000FCF720FF02220C215548FCF7A6FF022295
:103F70000D215348FCF7A1FF02220E215048FCF707
:103F80009CFF02220F214E48FCF797FF2920ADF835
:103F900020000020ADF8220042F20F7009900020AE
:103FA000ADF8280008A94548FDF79BFB0020ADF8B7
:103FB00014007020ADF804000120ADF806000220C6
:103FC000ADF8100001A93D48FDF720FC01A93B48D0
:103FD000FDF755FC01A93948FDF79EFC01A93748BA
:103FE000FDF700FD08213548FDF79DFD0821334808
:103FF000FDF7A2FD08213148FDF7ABFD08212F4850
:10400000FDF7B0FD01212D48FDF7D6FB01212B481E
:10401000FDF7F0FB0BB000BD00B58BB0012108200F
:10402000FDF7A7F901210846FDF75AF902221146CA
:104030002448FCF742FF0420099002208DF8280054
:1040400003208DF8290000208DF82A0001208DF82A
:104050002B0009A91B48FCF7A5FE2920ADF8180084
:104060000020ADF81A0042F20F7007900020ADF862
:10407000200006A91448FDF734FB01A8FDF7EAFC6F
:104080000020ADF814007020ADF804000120ADF858
:1040900006000220ADF8100001A90B48FDF73CFC1A
:1040A00008210948FDF755FD01210748FDF784FB6C
:1040B00001210548FDF79EFB0BB000BD0008004044
:1040C000000C024000000240000C004010B5FFF759
:1040D0002CFFFFF7A1FF10BD10B52DED048B04469A
:1040E000B0EE408AF0EE608A9FEDF91BB0EE480A10
:1040F000F0EE680A05F094FAB0EE409AF0EE609A9D
:104100009FEDF50B53EC102B51EC190B07F0C8F891
:1041100003D20020BDEC048B10BD9FEDF10B53ECDE
:10412000102B51EC180B07F0F7F841EC190BEE4887
:1041300090ED000B53EC102B51EC190B06F094FE94
:10414000EA4A03C2012C06D0022C28D0032C4AD004
:10415000042C7DD16BE0E64890ED000B51EC100B88
:1041600006F0B9FD41EC190BE04890ED000B53EC63
:10417000102B51EC190B07F093F80ED8DC4890ED9A
:10418000000B53EC102BD94890ED000B51EC100BA9
:1041900007F086F801D80120BCE70020BAE7D5482F
:1041A00090ED000B51EC100B06F095FD41EC190B56
:1041B000CE4890ED000B53EC102B51EC190B07F08F
:1041C0006FF80ED8CB4890ED000B53EC102BC7487E
:1041D00090ED000B51EC100B07F062F801D80120B4
:1041E00098E7002096E7C44890ED000B51EC100BC7
:1041F00006F071FD41EC190BBC4890ED000B53EC3F
:10420000102B51EC190B07F04BF80ED8BA4890ED73
:10421000000B53EC102BB54890ED000B51EC100B3C
:1042200007F03EF801D8012074E7002072E7B34898
:1042300090ED000B51EC100B06F04DFD41EC190B0D
:10424000AA4890ED000B53EC102B51EC190B00E039
:1042500013E007F025F80ED8A84890ED000B53ECBA
:10426000102BA24890ED000B51EC100B07F018F842
:1042700001D801204EE700204CE700204AE710B5A6
:104280002DED108B5A209E49088000209D49087012
:104290009FED9D0B9E4880ED000B9FED9B0B9D4875
:1042A00080ED000B9FED980B9B4880ED000B9FED80
:1042B000960B9A4880ED000BE1E29148B0F90000BE
:1042C00006F0C3FF41EC190B874890ED000B53EC4F
:1042D000102B51EC190B07F01FF841EC180B9FED58
:1042E000800B53EC102B06F0BFFD8D4A03C28D48A6
:1042F00090ED000B53EC102B8B4890ED000B51EC24
:10430000100B06F0F5FC41EC1B0B9FED711BB0EEA2
:104310004B0AF0EE6B0A05F083F9B0EE409AF0EE2E
:10432000609A824890ED000B53EC102B804890ED82
:10433000000B51EC100B06F0DBFC41EC1B0B9FED6E
:10434000641BB0EE4B0AF0EE6B0A05F069F9B0EEB3
:1043500040AAF0EE60AA53EC192B51EC1A0B06F0B0
:10436000C7FC41EC180BB0EE480AF0EE680A05F005
:10437000E3FF704880ED000B6F4890ED000B53ECAD
:10438000102B6E4890ED000B51EC100B06F0B0FCBA
:104390006B4A03C29FED500B53EC102B654890ED18
:1043A000000B51EC100B06F07BFF05D29FED560B76
:1043B000574880ED000B28E05A4890ED000B53EC75
:1043C000102B594890ED000B51EC100B06F090FCAF
:1043D00041EC180B554890ED000B53EC102B544852
:1043E00090ED000B51EC100B06F082FC41EC190B28
:1043F000B0EE481AF0EE681AB0EE490AF0EE690A1B
:1044000004F09EFF424880ED000B9FED3F0B53EC04
:10441000102B4B4890ED000B51EC100B06F040FFB9
:1044200000D23BE2474890ED000B53EC102B434881
:1044300090ED000B51EC100B07F07AF941EC1D0BDD
:104440009FED231BB0EE4D0AF0EE6D0A05F0E8F883
:10445000B0EE40BAF0EE60BA9FED1D1B354890ED0E
:10446000000B05F0DDF8B0EE40CAF0EE60CA53EC88
:104470001B2B51EC1C0B06F03BFC41EC1A0BB0EE75
:104480004A0AF0EE6A0A05F057FFB0EE408AF0EEF5
:10449000608A2D4890ED000B53EC102B2B4890EDCB
:1044A000000B51EC100B06F023FC41EC1A0B2848D2
:1044B00090ED000B53EC102B51EC1A0B06F018FC8E
:1044C00041EC190B53EC182B06F0EAFE42D2E5E161
:1044D00000000000000000407B14AE47E17A843FFA
:1044E000000000000080664090000020B001002025
:1044F000E8000020F0000020F8000020000100206B
:1045000042010020400100200000000000000000E7
:1045100008010020100100201801002020010020C7
:1045200048010020B000002098000020B8000020C2
:10453000A000002050010020C0000020A8000020A2
:1045400058010020C8000020D8000020D000002022
:10455000E0000020FE4890ED000B0120FFF7BCFDBD
:1045600000287CD0FB4890ED000B05F081FEB0EEFA
:10457000409AF0EE609AF84890ED000B53EC102B47
:1045800051EC190B06F0C8FE41EC180BF34890ED06
:10459000000B53EC102B51EC180B06F0F1FFF04A16
:1045A00003C2EC4890ED000B04F0CAFFB0EE40AA45
:1045B000F0EE60AAE84890ED000B53EC102B51ECA4
:1045C0001A0B06F0A9FE41EC190BE64890ED000B22
:1045D00053EC102B51EC190B06F0D2FF41EC180BE9
:1045E000E14890ED000B53EC102B51EC180B07F049
:1045F0009FF8DE4A03C2DE4890ED000B53EC102B0F
:104600001FED4D0B51EC100B06F086FE41EC1A0B22
:10461000D84890ED000B53EC102B51EC1A0B06F020
:104620007BFE41EC180B1FED561BD24890ED000BA2
:1046300004F0F6FFB0EE40AAF0EE60AA1FED5C1B9E
:10464000CB4890ED000B04F0EBFFB0EE40CAF0EE6B
:1046500060CA1FED611BC54890ED000B00E0F2E061
:1046600004F0DEFFB0EE40EAF0EE60EA1FED681BFA
:10467000BB4890ED000B04F0D3FFB0EE40FAF0EE33
:1046800060FA53EC1E2B51EC1F0B06F031FB41EC92
:104690001D0B53EC1C2B07F04BF841EC1B0B53ECA0
:1046A0001A2B07F045F841EC190B53EC182B06F0C8
:1046B000DBFBB14A03C21FED7A1BAF4890ED000B44
:1046C00004F0AEFFB0EE408AF0EE608A9FEDAB0BD7
:1046D00053EC102B51EC180B06F01CFF05D21FED0C
:1046E000760BA84880ED000B28E01FED871BA24841
:1046F00090ED000B04F094FFB0EE409AF0EE609A5B
:104700009FED9E0B53EC102B51EC190B06F038FF6C
:1047100041EC180BB0EE480AF0EE680A05F00CFE0A
:10472000994880ED000B944890ED001B964890ED61
:10473000000B04F005FE934880ED000B914890EDCE
:10474000000B0320FFF7C8FC00287CD08D4890EDBB
:10475000000B04F0F5FEB0EE409AF0EE609A85484A
:1047600090ED000B53EC102B51EC190B06F0D4FD1F
:1047700041EC180B7E4890ED000B53EC102B51ECE4
:10478000180B06F0B5FA814A03C27E4890ED000B83
:1047900005F06EFDB0EE408AF0EE608A754890ED4F
:1047A000000B53EC102B51EC180B06F0B5FD784ABA
:1047B00003C2764890ED001B754890ED000B04F0A5
:1047C000BFFDB0EE408AF0EE608A684890ED001BB5
:1047D000634890ED000B04F0B3FDB0EE409AF0EEAC
:1047E000609A53EC182B51EC190B06F0A1FF694AA3
:1047F00003C2684890ED000B0220FFF76DFC10B378
:10480000644890ED000B53EC102B524890ED000BD8
:1048100051EC100B06F08CFF41EC180B594890ED51
:10482000000B53EC102B51EC180B06F081FF5A4A89
:1048300003C2594890ED000B0420FFF74DFC10B166
:1048400001205649087055480078C0B95448B0F95D
:10485000000054490988544A92F9002011FB0200D3
:1048600000B24F4908804F480088401C00B24D49B3
:1048700008804D480078404240B24B490870484893
:10488000B0F90000002809DB4548B0F90000B42861
:1048900004DC4248007800283FF40FAD00BFBDECB7
:1048A000108B10BD10B52DED0C8B00203F4908700A
:1048B000274890ED000B0120FFF70EFCA0B1354812
:1048C00090ED000B0220FFF707FC68B12D4890ED3A
:1048D000000B0320FFF700FC30B12F4890ED000BD8
:1048E0000420FFF7F9FB90B90020304908701FED54
:1048F000FA0B2F4880ED000B1FEDFD0B2D4880EDCE
:10490000000B9FED2D0B2E4880ED000B7AE11D482A
:1049100090ED000B53EC102B1E4890ED000B51EC6A
:10492000100B06F0E5F941EC1C0B1B4890ED000B59
:1049300053EC102B51EC1C0B06F0DAF941EC1B0B7D
:10494000B0EE4B0AF0EE6B0A05F092FC3AE0000084
:104950000801002048010020E00000205001002054
:104960006001002058010020C800002068010020DC
:10497000D0000020D80000207001002000000000BE
:104980000000F03F18010020780100208001002085
:10499000880100201001002020010020400100209B
:1049A00042010020920100209001002041010020DE
:1049B000280100203001002000000000000000005D
:1049C00038010020B0EE40AAF0EE60AAFE4890ED5B
:1049D000000B53EC102B51EC1A0B06F09DFC41EC34
:1049E000180BFA4890ED000B53EC102BF84890EDA3
:1049F000000B51EC100B06F07BF941EC1D0BB0EEF7
:104A00004D0AF0EE6D0A05F033FCB0EE40CAF0EE50
:104A100060CAF04890ED000B53EC102B51EC1C0BCE
:104A200006F07AFC41EC1A0BE94890ED000B05F01A
:104A30001FFCB0EE40CAF0EE60CAE74890ED000BF4
:104A400053EC102B51EC1C0B06F066FC41EC1B0BDD
:104A500053EC1A2B06F04CF941EC190B53EC182BC4
:104A600006F046F9DD4A03C2D84890ED000B53EC3E
:104A7000102BD74890ED000B51EC100B06F038F9D5
:104A800041EC1C0BD64890ED000B53EC102B51EC75
:104A90001C0B06F02DF941EC1B0BB0EE4B0AF0EEAF
:104AA0006B0A04F04DFDB0EE40AAF0EE60AAC648D5
:104AB00090ED000B53EC102B51EC1A0B06F02CFC74
:104AC00041EC190BC14890ED000B53EC102BC04882
:104AD00090ED000B51EC100B06F00AF941EC1D0BA8
:104AE000B0EE4D0AF0EE6D0A04F02AFDB0EE40CAB9
:104AF000F0EE60CAB74890ED000B53EC102B51EC70
:104B00001C0B06F009FC41EC1A0BB14890ED000BB0
:104B100004F016FDB0EE40DAF0EE60DAAE4890ED4B
:104B2000000B53EC102B51EC1D0B06F0F5FB41EC88
:104B30001C0BAC4890ED000B53EC102B51EC1C0BF4
:104B400006F0D6F841EC1B0B53EC1A2B06F0D0F80C
:104B500041EC180B53EC192B06F0CAF8A24A03C219
:104B6000A24890ED000B04F0EBFCB0EE409AF0EEA2
:104B7000609A9A4890ED000B53EC102B51EC190BF6
:104B800006F0CAFB41EC180B994890ED000B53EC72
:104B9000102B51EC180B06F0CBFD964A03C293483C
:104BA00090ED000B05F064FBB0EE409AF0EE609AD9
:104BB0008A4890ED000B53EC102B51EC190B06F0CA
:104BC000ABFB41EC180B8C4890ED000B53EC102B19
:104BD00051EC180B06F0ACFD884A03C2824890EDF8
:104BE000000B874880ED000B1FED8D0B53EC102B55
:104BF00090ED000B51EC100B06F08CFC02D801205C
:104C000080490870BDEC0C8B10BD70B52DED108B7C
:104C1000B0EE408AF0EE608A05460C46002C01DDBD
:104C2000012401E04FF0FF34284606F00EFB41EC72
:104C30001A0B204606F009FB41EC1D0B724890ED63
:104C4000000B53EC102B9FED710B51EC100B06F089
:104C50000BF941EC1F0B53EC182B06F05DFB41ECFC
:104C60001E0B53EC1D2B06F057FB41EC1C0B9FED6C
:104C7000690B53EC102B06F03BF841EC1B0B53EC8B
:104C80001A2B06F035F841EC190B06F081FABDEC51
:104C9000108B70BD10B52DED0A8BB0EE408AF0EE92
:104CA000608AB0EE419AF0EE619AB0EE42AAF0EE60
:104CB00062AA5A4880ED008B594880ED009B594804
:104CC00080ED00ABFFF7DBFA5748007898B1FFF7AB
:104CD000E9FD5648006808B9012000E0002053496A
:104CE00008605348D0F8A80208B9012000E000206D
:104CF0004E49091D0860494890ED000B53EC102BFC
:104D00003C4890ED000B51EC100B06F011FD41EC0E
:104D10001C0BB0EE4C0AF0EE6C0A04F075FCB0EE21
:104D200040BAF0EE60BA9FED430B53EC102B51EC00
:104D30001B0B06F0EFFB40D3394890ED000B53EC12
:104D4000102B2E4890ED000B51EC100B06F0F0FCF0
:104D500041EC1C0BB0EE4C0AF0EE6C0A04F054FC73
:104D6000B0EE40BAF0EE60BA9FED320B53EC102B70
:104D700051EC1B0B06F0CEFB1FD32A4890ED000B25
:104D800053EC102B1E4890ED000B51EC100B06F06D
:104D9000CFFC41EC1C0BB0EE4C0AF0EE6C0A04F0B8
:104DA00033FCB0EE40BAF0EE60BA9FED220B53EC4C
:104DB000102B51EC1B0B06F0ADFB4FF001014FF037
:104DC00014000A4A3AE00000E00000201801002028
:104DD00010010020D8000020D00000209801002001
:104DE00020010020C8000020A001002008010020B0
:104DF000B000002028010020B80000203001002071
:104E00003801002041010020900000200000000037
:104E100000D4A440000000000070A74098000020CB
:104E2000A0000020A800002040010020A4824242EF
:104E300000804242000000000000E03F92ED000BC5
:104E4000FFF7E3FE4749088001216FF00900464A59
:104E500092ED000BFFF7D9FE444908800121232081
:104E6000434A92ED000BFFF7D0FE424908804FF015
:104E7000FF316FF04F00404A92ED000BFFF7C5FE87
:104E80003E490880374801883D48FCF718FE3748FE
:104E900001883B48FCF715FE364801883848FCF786
:104EA00012FE364801883648FCF70FFEBDEC0A8B2F
:104EB00010BD10B52B4801883148FCF700FE2B4887
:104EC00001882F48FCF7FDFD2A4801882C48FCF793
:104ED000FAFD2A4801882A48FCF7F7FD10BD10B5F5
:104EE0004FF47A712648FCF7EAFD40F6AC512448AD
:104EF000FCF7E7FD40F6AC512148FCF7E4FD40F635
:104F0000D8611F48FCF7E1FD10BD704710B54FF4A4
:104F10007A711B48FCF7D3FD40F605511848FCF7A1
:104F2000D0FD40F6C4111648FCF7CDFD40F6D8611F
:104F30001348FCF7CAFD10BD10B54FF47A71104844
:104F4000FCF7BDFD40F6B8310D48FCF7BAFD40F660
:104F5000AC510B48FCF7B7FD40F648510848FCF748
:104F6000B4FD10BDA801002010010020AA010020FE
:104F700018010020AC01002020010020AE0100201B
:104F80000008004010B54FF47A70FDF7DBFB0520F8
:104F90002749086010BD10B525480068052815D1BF
:104FA000FFF787FF00231A46A8211846FEF78DFC5D
:104FB00040F2DC50FDF7C6FB03201D490860FEF7F8
:104FC0001FFD4FF4FA70FDF7BDFB2FE01848006895
:104FD000032815D1FEF726FD00231A461946A820FE
:104FE000FEF773FC40F6B830FDF7ACFBFEF708FDAA
:104FF0004FF47A70FDF7A6FB04200D49086015E018
:105000000B480068042811D101210A48FCF7F2FB83
:1050100000231A461946A820FEF757FC41F28830B3
:10502000FDF790FB00210348FCF7E4FB10BD0000F6
:10503000B80100200048014001B5BDF80000009013
:10504000BDF80000FE49088008BD01B5BDF80000AC
:105050000090BDF80000FA49891C088008BD08B519
:10506000F748801C00880090BDF8000008BDF44A95
:1050700010804FF0D842A2F88010704710B5044657
:105080002046FFF7D9FF0520FDF714FBFFF7E7FFE8
:1050900010BDEC480089EA4908807047E849891C3E
:1050A0000880704730B5014601F01F04C1F3451375
:1050B000CA0AE50205EB43151544A8B230BD00BF8E
:1050C000011EA0F10102D0B2FAD1704710B502461C
:1050D0000C46DC48808841F66311884247D1D948A4
:1050E0008079A8B9D7480088401E801A82B2D54975
:1050F0004889FFF7A1FF0020FFF7A7FF0020FFF777
:10510000A4FF1012FFF7A1FFD0B2FFF79EFF16E039
:10511000CC494889FFF790FF1012FFF796FFD0B2F5
:10512000FFF793FFC7490988491EC1F30F20FFF716
:105130008CFFC4490978491EC8B2FFF786FFC149F0
:105140008889FFF779FF2012FFF77FFFE0B2FFF7B2
:105150007CFFBC494988491EC1F30F20FFF775FF4A
:10516000B8498978491EC8B2FFF76FFF3AE0B548E1
:10517000808845F21051884220D1B2494889FFF712
:105180005BFF1012FFF761FFAE494989491C88B2E5
:10519000FFF752FFD0B2FFF758FFAA498889FFF7FF
:1051A0004BFF2012FFF751FFA6498989491C88B29D
:1051B000FFF742FFE0B2FFF748FF13E0A14948893B
:1051C000FFF73AFF1012FFF740FFD0B2FFF73DFFA5
:1051D0009C498889FFF730FF2012FFF736FFE0B2C5
:1051E000FFF733FF10BD2DE9F04105460E460024C0
:1051F0000027A04693480088A84203DD91484088D4
:10520000B04202DC0020BDE8F08131462846FFF7BD
:105210005DFF8C48808845F21051884204D14FF4DC
:105220003850FFF709FF02E02E20FFF705FFFFF7D8
:1052300016FF04468348808841F66311884201D1F5
:105240002046E0E7FFF70BFF04467E48808847F2E0
:105250009671884201D12046D5E7FFF700FF8046CE
:10526000E7B24FF6FF7000EA0727E012C002B9125A
:1052700040EA411040EAE820C5E700B5714880885F
:1052800045F21051884204D14FF42450FFF7D4FE68
:1052900002E02920FFF7D0FE00BD00B569488088F4
:1052A00045F21051884204D14FF42050FFF7C4FE5C
:1052B00002E02820FFF7C0FE00BDF0B5054600243F
:1052C000002760488079012805D15E48808841F632
:1052D0006311884208D15B488079F0B959488088C9
:1052E00041F66311884218D1082D15D2DFE805F088
:1052F0000406080A0C0E101206250DE007250BE027
:10530000042509E0052507E0012505E0002503E067
:10531000032501E0022500BF00BF082D1CD2DFE8F5
:1053200005F00406090C0F12151800BF14E044F034
:10533000800411E044F040040EE044F0C0040BE0AF
:1053400044F0200408E044F0600405E044F0A004C8
:1053500002E044F0E00400BF00BF3A48808845F214
:105360001051884202D14FF4585700E03627354893
:10537000808849F2413188420BD03248808847F218
:105380008971884205D02F48808847F296718842FB
:1053900001D144F0080421463846FFF768FE294849
:1053A000808841F6631188421DD004F0200068B166
:1053B0002448008823494988884214DA214806880D
:1053C000408820490880084646800CE01D48008837
:1053D0001C494988884206DD1A48068840881949D0
:1053E0000880084646801748808845F21051884258
:1053F00057D114494889FFF71FFE0020FFF725FE0B
:1054000010494989491C88B2FFF716FE0020FFF7B2
:105410001CFE0C494989891C88B2FFF70DFE094919
:105420000988491EC1F30F20FFF70FFE054949897E
:10543000C91C88B2FFF700FE02490978491E03E043
:105440007E00006C4C020020C8B2FFF7FEFDFE4952
:105450008889FFF7F1FD0020FFF7F7FDFA498989F8
:10546000491C88B2FFF7E8FD0020FFF7EEFDF64982
:105470008989891C88B2FFF7DFFDF3494988491EF5
:10548000C1F30F20FFF7E1FDEF498989C91C88B2FC
:10549000FFF7D2FDEC498978491EC8B2FFF7D5FD68
:1054A0002DE0E9494889FFF7C7FD0020FFF7CDFD52
:1054B0000020FFF7CAFDE4490988491EC1F30F2007
:1054C000FFF7C3FDE0490978491EC8B2FFF7BDFDEB
:1054D000DD498889FFF7B0FD0020FFF7B6FD002009
:1054E000FFF7B3FDD8494988491EC1F30F20FFF7E4
:1054F000ACFDD5498978491EC8B2FFF7A6FDF0BDBD
:1055000030B504460D4629462046FFF7DFFDFFF77C
:10551000C0FDCE480088CE49088030BD30B5044675
:105520000D46C948808845F21051884220D1C649AD
:105530004889FFF781FD2012FFF787FDC24949899D
:10554000491C88B2FFF778FDE0B2FFF77EFDBE4947
:105550008889FFF771FD2812FFF777FDBA4989891D
:10556000491C88B2FFF768FDE8B2FFF76EFD42E024
:10557000B548808841F66311884228D1B2488079C5
:1055800020B9B1480088401E001B84B2AE4948894A
:10559000FFF752FD2012FFF758FDE0B2FFF755FD6F
:1055A0002012FFF752FDE0B2FFF74FFDA6498889B0
:1055B000FFF742FD2812FFF748FDE8B2FFF745FD6F
:1055C0002812FFF742FDE8B2FFF73FFD13E09E49C6
:1055D0004889FFF731FD2012FFF737FDE0B2FFF7F2
:1055E00034FD99498889FFF727FD2812FFF72DFD23
:1055F000E8B2FFF72AFD944800899549891E088082
:105600004FF0D840A0F8802030BD70B52DED048B50
:105610000446BE20FFF710FD0520FFF716FD2046CB
:1056200005F02AFE41EC190B9FED8A0B53EC102B71
:1056300005F072FE41EC180B05F0DAFD85B2284644
:10564000FFF703FD0120FFF700FDFF20FFF7FDFC42
:105650000020FFF7FAFC0020FFF7F7FCBDEC048BFD
:1056600070BD10B5044678488471002C58D1F020E4
:10567000754908804FF4A07048800846808845F23C
:105680001051884210D14FF430506F4908814FF4C7
:10569000285048814FF42C5088814FF4F0700880D6
:1056A0004FF4487048801AE06748808841F66311DB
:1056B00088420DD12C20644908812B2048812A2062
:1056C00088814FF4F07008804FF44870488006E0FD
:1056D0002C205D4908812A2048812B2088815A4846
:1056E000808845F21031884205D05748808847F2BB
:1056F0009671884206D14FF4A070534908804FF448
:10570000F07048805048808849F60601884258D198
:105710004FF4F0704C4908804FF44870488050E0D6
:105720004FF4A07048490880F020488008468088DF
:1057300045F21051884210D14FF43050424908814F
:105740004FF4285048814FF42C5088814FF4487012
:1057500008804FF4F070488020E03B48808841F694
:105760006311884205D03848808849F6060188428E
:105770000DD12C20344908812A2048812B20888192
:105780004FF4487008804FF4F070488006E02C20F9
:105790002D4908812A2048812B2088812A48808829
:1057A00045F21031884205D02748808847F296712B
:1057B000884206D14FF4F070234908804FF4A0705E
:1057C00048800020FFF779FD10BD2DE9F041044627
:1057D0000D461E46A018401E87B2A819401E1FFA8B
:1057E00080F81948808841F6631188423CD11648F8
:1057F0008079012838D014480088801A001B84B2B0
:10580000A819401E86B210494889FFF715FC2012DE
:10581000FFF71BFCE0B2FFF718FCA118491EC1F30B
:105820000F20FFF712FCA118491EC8B2FFF70DFCAC
:1058300005498889FFF700FC2812FFF706FCE8B24B
:10584000FFF703FC301209E04C020020BC010020ED
:105850008000006C6666666666660440FFF7F5FBCE
:10586000F0B2FFF7F2FB6EE0FE48808845F210517F
:10587000884246D1FB494889FFF7DEFB2012FFF73B
:10588000E4FBF8494989491C88B2FFF7D5FBE0B22F
:10589000FFF7DBFBF3494989891C88B2FFF7CCFB92
:1058A0003812FFF7D2FBEF494989C91C88B2FFF7CC
:1058B000C3FBF8B2FFF7C9FBEA498889FFF7BCFBD5
:1058C0002812FFF7C2FBE7498989491C88B2FFF714
:1058D000B3FBE8B2FFF7B9FBE2498989891C88B2BA
:1058E000FFF7AAFB4FEA2820FFF7AFFBDD498989C4
:1058F000C91C88B2FFF7A0FB08F0FF00FFF7A5FB6B
:1059000021E0D8494889FFF797FB2012FFF79DFB5C
:10591000E0B2FFF79AFB3812FFF797FBF8B2FFF7F8
:1059200094FBD0498889FFF787FB2812FFF78DFB8E
:10593000E8B2FFF78AFB4FEA2820FFF786FB08F062
:10594000FF00FFF782FBBDE8F08170B5044600263A
:10595000C44805884088454300210846FFF7B6FB48
:10596000FFF797FB00BF02E0BF480480761CAE4201
:10597000FAD370BD00B5A1B00020209001217A209B
:10598000FBF7AEFC01210846FBF7E2FC4FF40040B8
:105990001E9001208DF87C0000208DF87E000220F2
:1059A0008DF87D0001208DF87F001EA9AF48FBF720
:1059B000F9F94CF233701E9002208DF87C00002023
:1059C0008DF87E0003208DF87D0001208DF87F008A
:1059D0001EA9A748FBF7E6F94FF680701E9002203B
:1059E0008DF87C0000208DF87E0003208DF87D006E
:1059F00001208DF87F001EA99E48FBF7D3F94FF4D4
:105A000080501E9002208DF87C0000208DF87E00D2
:105A100003208DF87D0001208DF87F001EA9964897
:105A2000FBF7C0F94FF480501E9002208DF87C00E7
:105A300000208DF87E0003208DF87D0001208DF878
:105A40007F001EA98D48FBF7ADF90C220021884884
:105A5000FBF733FA0C2201218548FBF72EFA0C22C2
:105A600004218348FBF729FA0C2205218048FBF723
:105A700024FA0C2208217E48FBF71FFA0C22092188
:105A80007B48FBF71AFA0C220A217948FBF715FA32
:105A90000C220E217648FBF710FA0C220F217448D5
:105AA000FBF70BFA0C2207217248FBF706FA0C22CF
:105AB00008217048FBF701FA0C2209216D48FBF719
:105AC000FCF90C220A216B48FBF7F7F90C220B2199
:105AD0006848FBF7F2F90C2211466648FBF7EDF92E
