:020000040800F2
:10000000A0070020D1040008A5020008A7020008EC
:10001000AB020008AF020008B302000800000000B5
:10002000000000000000000000000000B70200080F
:10003000B902000800000000BB020008BD02000871
:10004000EB040008EB040008EB040008EB040008D4
:10005000EB040008EB040008EB040008EB040008C4
:10006000EB040008EB040008EB040008EB040008B4
:10007000EB040008EB040008EB040008EB040008A4
:10008000EB040008EB040008EB040008EB04000894
:10009000EB040008EB040008EB040008EB04000884
:1000A000EB040008EB040008EB040008EB04000874
:1000B000353A00082D3A0008EB040008EB0400086C
:1000C000EB040008EB040008EB040008EB04000854
:1000D000EB040008A7280008EB04000869270008C3
:1000E000EB040008EB040008EB040008EB04000834
:1000F000EB040008EB040008EB040008EB04000824
:10010000EB040008EB040008EB040008EB04000813
:10011000EB040008EB040008EB040008EB04000803
:10012000EB040008EB040008EB040008EB040008F3
:10013000EB040008EB040008EB040008EB040008E3
:10014000EB040008EB040008EB040008EB040008D3
:10015000EB040008EB040008EB040008EB040008C3
:10016000EB040008EB040008EB040008EB040008B3
:10017000EB040008EB040008EB040008EB040008A3
:10018000EB040008EB04000800F002F800F047F868
:100190000AA090E8000C82448344AAF10107DA45E2
:1001A00001D100F03CF8AFF2090EBAE80F0013F0ED
:1001B000010F18BFFB1A43F0010318476C9F0000A2
:1001C0008C9F0000103A24BF78C878C1FAD8520733
:1001D00024BF30C830C144BF04680C6070470000C1
:1001E0000023002400250026103A28BF78C1FBD840
:1001F000520728BF30C148BF0B607047642907F021
:100200000186782907F03A86632907F0D586002011
:1002100070471FB508F081FB1FBD10B510BD07F07A
:100220000DFF1146FFF7F5FF00F008F807F02BFF70
:1002300003B4FFF7F2FF03BC02F034FA08B54FF441
:10024000A06000F065F9A82002F0AAF902F036FCDF
:1002500003F004FC02F012FC4FF4165002F02FFAE7
:100260004FF4E13002F0CEFA04F0B6FB00200B4967
:10027000088011E0A023E62232210A2007F06BFB60
:10028000012018230090064802783221502007F000
:10029000CCFB1F2001490880ECE700009E000020F5
:1002A00034000020704700BFFEE700BFFEE700BF3C
:1002B000FEE700BFFEE770477047704770470000D9
:1002C0000CB50020019000907648006840F4803022
:1002D0007449086000BF7348006800F40030009063
:1002E0000198401C0190009818B90198B0F5A04FF2
:1002F000F1D16C48006800F4003010B1012000908A
:1003000001E0002000900098012846D16548403067
:10031000006840F0805063494031086062480068DE
:1003200040F44040604908605E48083000685D491C
:10033000083108600846006840F40040086008463C
:10034000006840F4A05008605848091F0860081F62
:10035000006840F08070091F086000BF51480068C5
:1003600000F000700028F9D040F205705049086094
:100370004C480830006820F003004A490831086002
:100380000846006840F00200086000BF4548083099
:10039000006800F00C000828F8D10CBD10B54548E5
:1003A000006840F47000434908603E48006840F02F
:1003B00001003C49086000203A490831086039488A
:1003C00000683D490840374908603C48091D0860FD
:1003D000081F006820F48020091F086000203149B0
:1003E0000C310860FFF76CFF4FF000603149803935
:1003F000086010BD70B500200022022300240221F5
:10040000284D08352D6805F00C0020B1042806D0D1
:10041000082834D107E02A4D2A4E356033E02A4DB2
:10042000284E35602FE01F4D2D1D2D68C5F38054DB
:100430001C4D2D1D2D6805F03F0154B1224DB5FB1B
:10044000F1F5184E361D3668C6F3881605FB06F220
:1004500009E01B4DB5FBF1F5124E361D3668C6F3AB
:10046000881605FB06F20F4D2D1D2D68C5F30145BD
:100470006D1C6B00B2FBF3F5124E356003E0104DBE
:10048000104E356000BF00BF064D08352D68C5F31E
:1004900003150E4E705D0B4D2D68C540094E35603D
:1004A00070BD000000380240007000400854400752
:1004B000003C024088ED00E0FFFFF6FE1030002413
:1004C0000024F4000000002000127A000400002044
:1004D0000948804709480047FEE7FEE7FEE7FEE7D8
:1004E000FEE7FEE7FEE7FEE7FEE7FEE70448054914
:1004F000054A064B704700009D030008890100086B
:10050000A0010020A0070020A0030020A0030020DD
:1005100032490143324A1160704770B5002100230F
:100520000F22C4781CB32E4C246804F4E064C4F594
:10053000E064C4F30721C1F10404E3B20A41447842
:100540009C40E1B28478144021430C07210E254CD5
:1005500005786155047804F01F050124AC40057846
:100560006D11AD0005F1E025C5F8004109E0047802
:1005700004F01F050124AC401B4D0678761145F8A8
:10058000264070BD194A0A400243154B1B1F1A60D2
:10059000704739B1124A121D12680243104B1B1DDD
:1005A0001A6006E00E4A121D126882430C4B1B1D96
:1005B0001A607047042808D14FF0E021096941F022
:1005C00004014FF0E022116107E04FF0E0210969DA
:1005D00021F004014FF0E022116170470000FA059C
:1005E0000CED00E000E400E080E100E080FFFF1F90
:1005F00030B943F2DB028100A1F1C0410A6005E09D
:1006000043F2D2028100A1F1C0410A606FF0704252
:10061000411C8900A1F1C0410A608100A1F1C041E3
:10062000C1F804217047D0E901121143C268114397
:10063000026911434269114382691143C26911433E
:10064000026A1143426A1143826A1143C26A11432A
:10065000026B114302689200A2F1C04211608168EE
:1006600008290BD101688900A1F1C041096841F056
:10067000400201688900A1F1C0410A60416B09682C
:10068000426B526841EA0211426B926841EA0221D0
:10069000426B928941EA0241426B128A41EA02515D
:1006A000426B127D41EA0261426B9269114302681A
:1006B000521C9200A2F1C0421160C16AB1F5804F94
:1006C0001BD1816B0968826B526841EA0211826B0F
:1006D000926841EA0221826B128A41EA0251826BDE
:1006E000127D41EA0261826B9269114302689200B5
:1006F000A2F1C042C2F8041107E06FF07042016835
:100700008900A1F1C041C1F80421704700210160B6
:100710000221416000218160C1600161416181610C
:10072000C16101624FF48051416249008162002140
:10073000C1620163F84941638163704751B182002E
:10074000A2F1C042126842F001038200A2F1C0424D
:10075000136009E08200A2F1C0421268EF4B1A4018
:100760008300A3F1C0431A60704710280AD11821F2
:100770004FF020421166402151664FF0FC319166E6
:10078000D16610E01821E64A116040214FF0204266
:10079000C2F884104FF0FC31E14A083211604FF08A
:1007A0002042C2F88C10704730B50021002200238F
:1007B000446844F0080485682C43C5682C430569E7
:1007C0002C43456944EA4524856944EA4531C469B6
:1007D0002468C5696D6844EA0524C5692D8944EA21
:1007E0000544C5692D7B44EA0562046A2468056AEC
:1007F0006D6844EA0524056A2D8944EA0544056AC2
:100800002D7B44EA05630468102C05D14FF0204489
:100810002166A266E36608E0C14C21604FF02044E7
:10082000C4F88820BE4C0C34236030BD1021016018
:10083000002141608160C160016141618161FC21F1
:10084000C2691160C2695160C2699160C269D160B8
:10085000026A1160026A5160026A9160026AD160A4
:10086000704799B1102808D14FF02042126E42F023
:1008700004024FF020431A661DE0A94A126842F0B4
:1008800004024FF02043C3F8802014E0102809D15F
:100890004FF02042126EA14BDB1E1A404FF0204356
:1008A0001A6608E09E4A12689C4BDB1E1A404FF005
:1008B0002043C3F88020704799B1102808D14FF029
:1008C0002042126E42F040024FF020431A661DE0B3
:1008D000934A126842F040024FF02043C3F8802050
:1008E00014E0102809D14FF02042126E8B4B3F3B91
:1008F0001A404FF020431A6608E0894A1268874B75
:100900003F3B1A404FF02043C3F880207047014618
:100910000020102903D14FF02042506F02E0804A9E
:1009200014321068704718207D492031086000207B
:100930000906C1F8A4004FF0FC307949283108605D
:10094000091D0860091D08607047016841F0100129
:10095000426841EA4221826841EA4231704A2032CB
:100960001160C1680968C268526841EA0221C26820
:10097000128941EA0241C268127B41EA0261684A77
:1009800028321160016909680269526841EA02214E
:100990000269128941EA02410269127B41EA02615D
:1009A0005F4A2C321160416909684269526841EA24
:1009B00002214269128941EA02414269127B41EAFD
:1009C00002614FF02042C2F8B01070470021016070
:1009D00041608160FC21C2681160C2685160C268D8
:1009E0009160C268D1600269116002695160026958
:1009F00091600269D1604269116042695160426947
:100A000091604269D160704748B145492031096819
:100A100041F004014FF02042C2F8A01009E0404923
:100A2000203109683D4AD21E11404FF02042C2F8E1
:100A3000A010704710B5F2B1102807D14FF0204335
:100A40005B6E0B434FF02044636632E0B0F5807F6D
:100A500008D1334B1B1D1B680B434FF02044C4F8D7
:100A6000843026E02E4B24331B680B434FF0204488
:100A7000C4F8A4301DE0102807D14FF020435B6E6E
:100A80008B434FF02044636613E0B0F5807F08D1BC
:100A9000234B1B1D1B688B434FF02044C4F884304C
:100AA00007E01F4B24331B688B434FF02044C4F8EE
:100AB000A43010BD10B5024600200023102A03D137
:100AC0004FF02044636E09E0B2F5807F03D1144CEF
:100AD000241D236802E0124C2434236803EA010435
:100AE0000CB1012000E0002010BD102807D14FF00C
:100AF0002042526E8A434FF020435A6619E0B0F507
:100B0000807F0FD1064A121D12688A434FF020439E
:100B1000C3F884200DE0000024890008FEFF0F00C8
:100B2000800000A0234A12688A434FF02043C3F894
:100B3000A420704770B50246002000230024002541
:100B4000102A03D14FF02046736E08E0B2F5807F83
:100B500003D1184E203E336801E0164E336803EA95
:100B6000010403EAD10514B10DB1012000E0002019
:100B700070BD102808D14FF02042526E22EAD102F7
:100B80004FF020435A6614E0B0F5807F09D1094A3E
:100B9000203A126822EAD1024FF02043C3F88420A1
:100BA00007E0044A126822EAD1024FF02043C3F85A
:100BB000A4207047A40000A010B5044698488442C1
:100BC00008D10121084600F086FB0021012000F039
:100BD00082FB76E09348844208D10121022000F094
:100BE0007AFB0021022000F076FB6AE08E48844206
:100BF00008D10121042000F06EFB0021042000F048
:100C00006AFB5EE08948844208D10121082000F097
:100C100062FB0021082000F05EFB52E08448844221
:100C200008D10121102000F056FB0021102000F017
:100C300052FB46E07F48844208D10121202000F089
:100C40004AFB0021202000F046FB3AE07A4884422B
:100C500008D10121402000F03EFB0021402000F09F
:100C60003AFB2EE07548844208D10121802000F033
:100C700032FB0021802000F02EFB22E070488442ED
:100C800008D10121801500F026FB0021A01500F0FD
:100C900022FB16E06B48844208D10121401500F088
:100CA0001AFB0021601500F016FB0AE0664884423A
:100CB00007D10121001500F00EFB0021201500F0E6
:100CC0000AFB10BDF0B50A4600210023002400BF36
:100CD0003DE0012505FA01F3156805EA03049C428D
:100CE00034D105684F000326BE40B5430560157931
:100CF0004E00B5400668354305601579012D02D0D8
:100D00001579022D16D185684F000326BE40B543E4
:100D1000856055794E00B5408668354385604568E5
:100D200001268E40B5434560456896798E40B6B23F
:100D300035434560C5684F000326BE40B543C560D6
:100D4000D5794E00B540C6683543C560491C1029A9
:100D5000BFD3F0BD4FF6FF710160002101714171F9
:100D60008171C171704708B54FF480320092009ACA
:100D70000A430092009AC261C161009AC261C269CD
:100D80000092C269009208BD0246002013690B4020
:100D90000BB1012000E0002070470146086980B2D5
:100DA00070470246002053690B400BB1012000E060
:100DB000002070470146486980B270470183704740
:100DC000418370470AB1018300E04183704741616C
:100DD000704742694A4042617047F0B500230024E1
:100DE0004D07ED0E02FA05F3CE1000F1200555F87F
:100DF00026504E07F70E0F26BE40B543CF1000F128
:100E0000200646F82750CE1000F1200555F8265050
:100E100045EA0304CE1000F1200545F82640F0BD58
:100E2000000002400004024000080240000C0240A2
:100E3000001002400014024000180240001C024052
:100E4000002002400024024000280240F9480068C7
:100E500040F00100F74908600020F64908310860B9
:100E6000F4480068F4490840F2490860F348091D55
:100E70000860F348EF4984310860F0481038091DD4
:100E80000860EC48006820F48020EA4908600020EF
:100E9000E8490C310860E7498C310860704700214F
:100EA000E44A921C117011460870704710B5014653
:100EB0000022002300204A11012A02D1DD4C2368C0
:100EC00008E0022A03D1DB4C7034236802E0D94CDD
:100ED0007434236801F01F02012494401C400CB1BB
:100EE000012000E0002010BD38B500200090002453
:100EF000002500BF3120FFF7D9FF05460098401CB0
:100F000000900098B0F5A04F01D0002DF2D0312014
:100F1000FFF7CCFF08B1012400E00024204638BDD3
:100F200001460020C34A106820F0F80040EAC100E2
:100F300010607047C349086070470021BD4A703295
:100F400011701170012802D004280AD104E0012197
:100F5000B84A7032117005E00521B64A703211703E
:100F600000E000BF00BF7047B7490860704770B528
:100F7000049C41EA82150126C6EB530645EA064564
:100F8000054345EA0465AB4E361D356070BDAD497D
:100F900008667047820142EA0172A64B84331A60E8
:100FA0007047A8498866704710B5830143EA01631A
:100FB00043EA02739F4C8834236010BDA14908673F
:100FC0007047A049C864704702460020994B083317
:100FD000186820F0EC6042EA01031843954B08338F
:100FE0001860704702460020924B0833186820F0C2
:100FF000784042EA010318438E4B0833186070476B
:10100000014600208B4A0832106820F00300084394
:101010001060704787480830006800F00C00704787
:1010200001460020834A0832106820F0F00008438F
:1010300010607047014600207E4A0832106820F494
:10104000E05008431060704701460020794A08329A
:10105000106820F4604040EAC10010607047F0B5AD
:10106000002100220024022500260223714F0837A8
:101070003F6807F00C0121B1042905D0082937D1B8
:1010800005E0724F076036E0714F076033E0694F4B
:101090003F1D3F68C7F38056664F3F1D3F6807F00E
:1010A0003F036EB16A4FB7FBF3F7DFF888C10CF16D
:1010B000040CDCF800C0CCF3881C07FB0CF40CE03B
:1010C000624FB7FBF3F7DFF86CC10CF1040CDCF8EE
:1010D00000C0CCF3881C07FB0CF4564F3F1D3F6843
:1010E000C7F301477F1C7D00B4FBF5F7076002E002
:1010F000564F076000BF00BF4E4F08373F6807F0EC
:10110000F0010909534F7A5C0768D7404760494F9F
:1011100008373F6807F4E051890A4E4F7A5C476808
:10112000D7408760434F08373F6807F46041490B59
:10113000484F7A5C4768D740C760F0BD002100F493
:101140004072B2F5407F0AD13A4A0832116821F460
:10115000F811414A02401143364A08321160354ABB
:1011600070321268C0F30B031A43324B70331A60AB
:101170007047354944390860704733494039086041
:10118000704736490860704701460020294A8C3272
:10119000106820F01F004A1E1043264A8C3210604F
:1011A000704701460020234A8C32106820F4F85022
:1011B0004A1E40EA02201F4A8C32106070470146E6
:1011C00000201C4A8C32106820F440100843106044
:1011D000704701460020174A8C32106820F4400006
:1011E00008431060704701460020124A8C32106894
:1011F00020F4403008431060704719490860704778
:1012000039B10C4A3032126802430A4B30331A604B
:1012100006E0084A303212688243064B30331A60C7
:101220007047F9B1034A343212680243014B343338
:101230001A601CE000380240FFFFF6EA103000247C
:101240000030002000004742800E47420024F40096
:1012500000127A0014000020FFFCFF0F5C014742DF
:10126000E01147428F4A126882438E4B1A607047E2
:1012700039B18C4A121D126802438A4B1B1D1A6039
:1012800006E0884A121D12688243864B1B1D1A60B5
:10129000704739B1834A0C3212680243814B0C33D8
:1012A0001A6006E07F4A0C32126882437D4B0C3391
:1012B0001A60704739B17B4A103212680243794B89
:1012C00010331A6006E0774A103212688243754B79
:1012D00010331A60704739B1724A243A12680243D7
:1012E000704B243B1A6006E06E4A243A126882432F
:1012F0006C4B243B1A60704739B16A4A203A126835
:101300000243684B203B1A6006E0664A203A1268A6
:101310008243644B203B1A60704739B1614A1C3AE2
:10132000126802435F4B1C3B1A6006E05D4A1C3AA0
:10133000126882435B4B1C3B1A60704739B1594AB3
:10134000143A12680243574B143B1A6006E0554AA0
:10135000143A12688243534B143B1A60704739B1F8
:10136000504A103A126802434E4B103B1A6006E096
:101370004C4A103A126882434A4B103B1A6070473D
:1013800039B1484A1C3212680243464B1C331A607A
:1013900006E0444A1C3212688243424B1C331A60F6
:1013A000704739B13F4A2032126802433D4B203327
:1013B0001A6006E03B4A203212688243394B2033E0
:1013C0001A60704739B1374A243212680243354BEC
:1013D00024331A6006E0334A243212688243314BC8
:1013E00024331A60704739B12E4A2C3212680243F6
:1013F0002C4B2C331A6006E02A4A2C3212688243A6
:10140000284B2C331A60704739B1264A30321268A3
:101410000243244B30331A6006E0224A303212680D
:101420008243204B30331A607047012808D11D4990
:101430003C31096841F008011A4A3C32116007E06A
:1014400018493C31096821F00801164A3C32116004
:10145000704739B1134A273A12780243114B273BA0
:101460001A7006E00F4A273A127882430D4B273B49
:101470001A7070470B484030006840F0807009498E
:1014800040310860704701460020064A283A126839
:101490000A400AB1012000E00020704701492639C6
:1014A000087070473438024010B50446FE48844244
:1014B00008D101210846FFF752FF00210120FFF764
:1014C0004EFF9DE0B4F1804F08D101210846FFF79F
:1014D00035FF00210120FFF731FF91E0F3488442FE
:1014E00008D101210220FFF729FF00210220FFF788
:1014F00025FF85E0EE48844208D101210420FFF752
:101500001DFF00210420FFF719FF79E0E94884421C
:1015100008D101210820FFF711FF00210820FFF763
:101520000DFF6DE0E448844208D101211020FFF74F
:1015300005FF00211020FFF701FF61E0DF48844232
:1015400008D101212020FFF7F9FE00212020FFF71C
:10155000F5FE55E0DA48844208D101210220FFF768
:10156000FEFE00210220FFF7FAFE49E0D548844242
:1015700009D101210804FFF7F2FE00214FF4803069
:10158000FFF7EDFE3CE0D048844209D10121480438
:10159000FFF7E5FE00214FF40030FFF7E0FE2FE0FB
:1015A000CA48844209D101218804FFF7D8FE0021EE
:1015B0004FF48020FFF7D3FE22E0C548844208D1D3
:1015C00001214020FFF7BAFE00214020FFF7B6FEC0
:1015D00016E0C048844208D101218020FFF7AEFE0A
:1015E00000218020FFF7AAFE0AE0BB48844207D111
:1015F00001218015FFF7A2FE0021A015FFF79EFE36
:1016000010BD00220288A84B98420ED0AC4B9842E5
:101610000BD0B0F1804F08D0A44B984205D0A44B1A
:10162000984202D0A34B984204D14FF68F731A40D0
:101630004B881A43A04B984207D0A04B984204D045
:101640004FF6FF431A400B891A4302804B68C3626E
:101650000B880385944B984202D0994B984201D154
:101660008B7A03860123838270474FF0FF314160FC
:101670000021018001814180817270470185828251
:1016800070470A46002101884FF68F7319401143B5
:101690000180704741627047C16270470146486AE5
:1016A00070470146088D704721B1028842F002025E
:1016B000028004E002884FF6FD731A4002807047F2
:1016C00021B1028842F00402028004E002884FF651
:1016D000FB731A400280704721B1028842F08002F9
:1016E000028004E002884FF67F731A400280704740
:1016F00002884FF6F7731A40028002880A4302807C
:10170000704702884FF6FF431A40028002880A435E
:101710000280704721B1028842F00102028004E099
:1017200002884FF6FE731A400280704770B500249D
:1017300000220023058C4FF6FE7635400584028C8E
:101740008388048B4FF68F752C40B51E2C400D8876
:101750002C43751E2A408D892A434D882A43524DB9
:10176000A84202D0564DA84213D14FF6F7752A4031
:10177000CD892A434FF6FB752A408D882A434FF6C0
:10178000FF652B404FF6FF552B400D8A2B434D8AAA
:101790002B43838004838D684563028470BD70B5DC
:1017A000002400220023058C4FF6EF763540058497
:1017B000028C8388048B48F6FF752C404FF6FF455A
:1017C0002C400D884FF6FF7606EA05252C434FF690
:1017D000DF752A408D8906EA05152A434D8806EAF9
:1017E00005152A43304DA84202D0354DA8421DD1DF
:1017F0004FF67F752A40CD894FF6FF7606EA05152C
:101800002A434FF6BF752A408D8806EA05152A43FC
:101810004FF6FF352B404FF2FF752B400D8A06EA3D
:1018200085052B434D8A06EA85052B438380048377
:101830008D688563028470BD70B50024002200238A
:10184000058C4FF6FF6635400584028C8388848BB7
:101850004FF68F752C404FF6FC752C400D882C43AD
:101860004FF6FF552A408D894FF6FF7606EA05258B
:101870002A434D8806EA05252A430B4DA84202D08B
:101880000F4DA84238D14FF2FF752A40CD894FF64F
:10189000FF7606EA05252A434FF6FF352A408D8854
:1018A00006EA05252A4319E0000001400004004033
:1018B00000080040000C00400010004000140040F0
:1018C0000004014000400140004401400048014044
:1018D00000180040001C0040002000404EF6FF753C
:1018E0002B404DF6FF752B400D8A06EA05152B435C
:1018F0004D8A06EA05152B43838084838D68C56372
:10190000028470BD70B5002200230024058C4EF6C1
:10191000FF7635400584038C8488828B48F6FF75FA
:101920002A404FF6FF452A400D884FF6FF7606EA1B
:1019300005252A434DF6FF752B408D8906EA0535AE
:101940002B434D8806EA05352B43FE4DA84202D0B5
:10195000FD4DA84208D14BF6FF752C400D8A4FF67D
:10196000FF7606EA85152C43848082838D680564A2
:10197000038470BD0021018041808180816081816C
:10198000C18101824182704770B503460020002466
:101990001846183001258D40ACB21D8CA5431D841E
:1019A00009B108290AD100EB610005684FF68F766E
:1019B000354005600568154305600FE00D1FC5F350
:1019C0004E052844056848F6FF76354005600568F1
:1019D0004FF6FF7606EA02263543056070BD416387
:1019E000704781637047C1637047016470470A465E
:1019F0000021018B4FF68F7319401143018370470B
:101A00000A460021018B48F6FF7319404FF6FF7319
:101A100003EA02231943018370470A460021818BA0
:101A20004FF68F7319401143818370470A46002196
:101A3000818B48F6FF7319404FF6FF7303EA0223C8
:101A40001943818370470A460021018B4FF6F773D3
:101A500019401143018370470A460021018B4FF260
:101A6000FF7319404FF6FF7303EA02231943018302
:101A700070470A460021818B4FF6F77319401143D6
:101A8000818370470A460021818B4FF2FF73194012
:101A90004FF6FF7303EA02231943818370470A4616
:101AA0000021018B4FF6FB731940114301837047EE
:101AB0000A460021018B4FF6FF3319404FF6FF73A2
:101AC00003EA02231943018370470A460021818BF0
:101AD0004FF6FB7319401143818370470A4600217A
:101AE000818B4FF6FF3319404FF6FF7303EA022351
:101AF0001943818370470A460021018B4FF67F739B
:101B000019401143018370470A460021018BC1F33C
:101B10000E014FF6FF7303EA022319430183704756
:101B20000A460021818B4FF67F7319401143818350
:101B300070470A460021818BC1F30E014FF6FF73F7
:101B400003EA02231943818370470A460021018C6E
:101B50004FF6FD7319401143018470470A46002176
:101B6000018C4FF6F77319401143018470470A4600
:101B70000021018C4FF6DF7319404FF6FF7303EA23
:101B800002131943018470470A460021018C4FF665
:101B90007F7319404FF6FF7303EA02131943018460
:101BA00070470A460021018C4FF6FF5319404FF64B
:101BB000FF7303EA02231943018470470A46002198
:101BC000018C4FF2FF7319404FF6FF7303EA0223B3
:101BD0001943018470470A460021018C4DF6FF73BA
:101BE00019404FF6FF7303EA02331943018470472B
:101BF00030B5002301248C40A3B2048C9C430484A0
:101C0000048C02FA01F5ADB22C43048430BD30B52A
:101C1000002304248C40A3B2048C9C430484048CD1
:101C200002FA01F5ADB22C43048430BD828B4FF231
:101C3000FF331A408283828B4FF6FF7303EA01233E
:101C40001A4382837047F0B50C46154600210022E6
:101C50000026078C4EF6FF7C07EA0C070784818B71
:101C6000028C4FF6FF7707EA043640F6FF4739400B
:101C70004FF6FF7707EA052739434FF6FF7707EA64
:101C80000337394345F6FF773A4046F480573A43E5
:101C900081830284F0BD828B4FF6F3731A408283F6
:101CA000828B0A4382837047F0B50C4615460021AB
:101CB00000220026078C4FF6FF6C07EA0C0707840A
:101CC000818B028C4FF6FF7707EA04264FF60C77DC
:101CD00039404FF6FF7707EA03172F4339434FF296
:101CE000FF573A4046F480773A4381830284F0BD3F
:101CF000028B4FF2FF331A400283028B4FF6FF73C1
:101D000003EA01231A4302837047F0B50C461546D7
:101D1000002100220026078C4FF6EF7C07EA0C0713
:101D20000784018B028C4FF6FF7707EA041640F612
:101D3000FF4739404FF6FF7707EA033739434FF63D
:101D4000FF7703E0000001400004014007EA052797
:101D500039434FF65F773A4046F010073A43018324
:101D60000284F0BD028B4FF6F3731A400283028B9C
:101D70000A4302837047F0B50C4615460021002245
:101D8000068C4FF6FE773E400684018B028C4FF6A0
:101D90000C7631407E1C06EA03162E4331434FF683
:101DA000F576324044F00106324301830284F0BDEF
:101DB00070B505460C46208850B92389A2886188F1
:101DC0002846FFF7D8FFE1882846FFF7CBFF25E03C
:101DD000208804280AD12389A28861882846FFF731
:101DE00094FFE1882846FFF783FF17E02088082842
:101DF0000AD12389A28861882846FFF755FFE18828
:101E00002846FFF748FF09E02389A2886188284611
:101E1000FFF719FFE1882846FFF708FF70BD002192
:101E200001804180012181800021C18001817047B2
:101E30002DE9F04105460C4600260127608808B9C7
:101E4000022600E00026A088012801D1022700E038
:101E500001272088A0B92389A28861882846FFF736
:101E60008AFFE1882846FFF77DFF23893A463146FD
:101E70002846FFF74AFFE1882846FFF739FF13E0BD
:101E80002389A28861882846FFF73FFFE18828461A
:101E9000FFF72EFF23893A4631462846FFF76BFFAE
:101EA000E1882846FFF75EFFBDE8F0810146486BF8
:101EB00070470146886B70470146C86B7047014602
:101EC000086C70470A884B881A438B881A43CB8862
:101ED0001A430B891A434B891A438B891A43A0F87A
:101EE000442070470021018041808180C1800181B0
:101EF00041818181704731B1B0F8442042F4004201
:101F0000A0F8442005E0B0F84420C2F30E02A0F887
:101F10004420704721B1828842F00402828004E0AC
:101F200082884FF6FB731A408280704721B1828805
:101F300042F00102828004E082884FF6FE731A406C
:101F4000828070471AB183890B43838102E08389C1
:101F50008B43838170478182704702460020138A39
:101F60000B400BB1012000E000207047CA43028201
:101F7000704730B50246002000230024158A05EA88
:101F80000103958905EA010413B10CB1012000E0B9
:101F9000002030BDCA430282704741EA0203A0F824
:101FA000483070471AB183890B43838102E08389EB
:101FB0008B438381704721B1828842F0080282807E
:101FC00004E082884FF6F7731A40828070470189D7
:101FD0004FF6F8721140018170470A4600210189CD
:101FE0004FF68F73194011430181704730B5044695
:101FF0000D4629462046FFF7F0FF208940F00700F4
:10200000208130BD2DE9F04104460D4616461F469D
:10201000602D06D13B46012231462046FFF775FE72
:1020200005E03B46012231462046FFF7A4FE294643
:102030002046FFF7D2FF208940F007002081BDE84D
:10204000F08130B50C4600210189C9B24FF6FF7509
:1020500005EA0325154325432943018130BD2DE9B8
:10206000F04105460E4617469846002443463A4638
:1020700031462846FFF7E5FF2C894FF6F8700440FB
:1020800044F007044FF68F70044044F070042C8134
:10209000BDE8F081F0B504460D4616461F463B46A6
:1020A000324629462046FFF7CCFF208940F4804085
:1020B0002081F0BD82884FF68F731A40828082881B
:1020C0000A438280704702894FF6F8731A400281F2
:1020D00002890A430281704702894FF67F731A40D2
:1020E000028102890A4302817047F0B50C46154609
:1020F0001E460021002200230189028B038C4FF62B
:10210000F877394021434FF6FC473A4040F2011737
:102110003A434FF6DD773B404FF6FF7707EA061765
:102120002F433B43018102830384F0BD21B18288A8
:1021300042F08002828004E082884FF67F731A406A
:1021400082807047A0F850107047000010B5044618
:10215000FA48844208D101211020FFF700F900213C
:102160001020FFF7FCF857E0F548844209D101211F
:102170004804FFF7E3F800214FF40030FFF7DEF8E2
:102180004AE0F048844209D101218804FFF7D6F8DB
:1021900000214FF48020FFF7D1F83DE0EA48844267
:1021A00009D10121C804FFF7C9F800214FF400202C
:1021B000FFF7C4F830E0E548844209D10121080561
:1021C000FFF7BCF800214FF48010FFF7B7F823E0C9
:1021D000DF48844208D101212020FFF7C0F8002108
:1021E0002020FFF7BCF817E0DA48844209D101212A
:1021F0008807FFF7A3F800214FF08040FFF79EF813
:102200000AE0D548844207D101214005FFF796F83E
:1022100000216005FFF792F810BD2DE9FF47054644
:102220000E460024A14600BFA046B08900B100BF01
:102230002C8A24F44054F08804432C82AC8941F267
:102240000C608443B0883189084371890843044392
:10225000AC81AC8A24F44074B0890443AC826846F3
:10226000FEF7FDFEB548854202D0B948854202D14D
:10227000DDF80C9001E0DDF80890A88900F400403A
:1022800040B109EBC90000EB091031684900B0FB0F
:10229000F1F707E009EBC90000EB0910316889008C
:1022A000B0FBF1F76420B7FBF0F0040120096421D2
:1022B00001FB1078A88900F4004040B1322000EB07
:1022C000C800B0FBF1F000F00700044308E0322042
:1022D00000EB08106421B0FBF1F000F00F000443A4
:1022E0002C81BDE8FF874FF41651016000218180E9
:1022F000C18001810C21418100218181704710B58D
:1023000002460020108A20F470600B884C8823431A
:102310008C882343CC8823431843108210BD0021AE
:10232000018041808180C180704721B1828942F45F
:102330000052828104E082894DF6FF731A40828147
:102340007047028B02F47F420283028B0A430283AE
:10235000704721B1828942F40042828103E0828980
:10236000C2F30E028281704721B1828A42F4006278
:10237000828204E0828A4FF2FF731A4082827047A1
:10238000C1F308028280704701468888C0F30800C4
:102390007047028A4FF6F0731A400282028A0A439B
:1023A0000282704721B1828942F00202828104E0F8
:1023B00082894FF6FD731A408281704782894FF2FD
:1023C000FF731A40828182890A4382817047028AA0
:1023D0004FF6DF731A400282028A0A430282704774
:1023E00021B1028A42F48042028204E0028A4BF662
:1023F000FF731A4002827047818941F00101818197
:10240000704721B1828A42F00802828204E0828A07
:102410004FF6F7731A4082827047028BD2B2028362
:10242000028B42EA01220283704721B1828A42F084
:102430002002828204E0828A4FF6DF731A40828291
:10244000704721B1828A42F01002828204E0828ABF
:102450004FF6EF731A4082827047828A4FF6FB7301
:102460001A408282828A0A438282704721B1828A1C
:1024700042F00202828204E0828A4FF6FD731A4023
:10248000828270471AB1838A0B43838202E0838A77
:102490008B4383827047F0B5034600240026002555
:1024A000002040F66A17B94200D100BF1846C1F3B8
:1024B000421401F01F06012707FA06F5012C01D18D
:1024C0000C3004E0022C01D1103000E014301AB1BD
:1024D00007682F43076002E00768AF430760F0BD5D
:1024E00002460020B1F5007F00D100BF13880B40E9
:1024F0000BB1012000E00020704701F40072B2F53A
:10250000007F00D100BFCA430280704770B5024609
:10251000002400230025002040F66A16B14200D1B5
:1025200000BFC1F3421501F01F03012606FA03F3B1
:10253000012D13D19689334017E0000000100140AF
:102540000044004000480040004C00400050004063
:102550000014014000780040007C0040022D02D1B0
:10256000168A334001E0968A33400C12012606FA9F
:1025700004F41688344013B10CB1012000E00020AF
:1025800070BD10B50022002340F66A14A14200D1AC
:1025900000BF0A1201249440A3B2DC43048010BDA2
:1025A00010B504466FF00400FEF704F8E11704EBE1
:1025B0005171C1F3C701394A11701046007800EB20
:1025C0004001C1EBC0104FF6FF7101EAC000344971
:1025D000088010BD0146314A12784A434FF0E0238B
:1025E0005A6100229A611A46126942F001021A6188
:1025F00000BF4FF0E022106900F001021AB100F4B0
:102600008032002AF5D04FF0E022126922F0010258
:102610004FF0E0231A6100229A6170470146204A78
:1026200012884A434FF0E0235A6100229A611A4609
:10263000126942F001021A6100BF4FF0E0221069F6
:1026400000F001021AB100F48032002AF5D04FF0F8
:10265000E022126922F001024FF0E0231A61002209
:102660009A61704770B504464FF4077094FBF0F020
:10267000C6B24FF4077094FBF0F100FB114085B235
:1026800005E04FF40770FFF7C9FF701EC6B2002EB9
:10269000F7D115B12846FFF7C1FF70BD2400002017
:1026A0002600002000BF704700BFD84A128802F001
:1026B0004002002AF9D0C2B2D44B9A80704710B5BC
:1026C00088B0044601218804FEF7E3FD01210220C1
:1026D000FEF796FD07220A21CD48FEF77EFB072272
:1026E0000B21CB48FEF779FB4FF4406006900220A7
:1026F0008DF81C008DF81D0000208DF81E000120B3
:102700008DF81F0006A9C248FEF7DCFA02940020EB
:10271000ADF80C00ADF80E00ADF81000ADF81400E7
:102720000C20ADF8120002A9BA48FFF776FD01218E
:10273000B848FFF7FAFD4021B648FFF7DEFE012258
:1027400040F22551B348FFF7A6FE27208DF804007C
:1027500001208DF805008DF806008DF8070001A80E
:10276000FDF7DBFE08B010BD10B540F22551A948B9
:10277000FFF7CCFE002844D02021A648FFF7BDFE7D
:10278000A5480068062830D1A248FFF7FDFDA349FF
:102790000A680968491CA14B1960A14941F8220047
:1027A00008460068A32802D00020194608609B480C
:1027B0000068022806D19A484068B32802D0002059
:1027C000964908609548006806281AD194484069DF
:1027D000C32816D192488068924908609048C06822
:1027E00048608F48006988600BE08A48FFF7CCFD9D
:1027F0008D49087000BF40218648FFF771FE01280F
:10280000F9D110BD10B588B0044601210220FEF7B1
:10281000F7FC01211020FEF74DFD072211467C48F0
:10282000FEF7DBFA072206217948FEF7D6FAC02028
:10283000069002208DF81C008DF81D0000208DF8F8
:102840001E0001208DF81F0006A97148FEF73AFA14
:1028500002940020ADF80C00ADF80E00ADF81000A9
:10286000ADF814000C20ADF8120002A96748FFF77C
:10287000D4FC012240F225516448FFF70CFE2520CC
:102880008DF8040002208DF805008DF80600012067
:102890008DF8070001A8FDF740FE01215B48FFF716
:1028A00044FD08B010BD10B540F225515748FFF760
:1028B0002DFE20B140F225515448FFF762FE10BDB5
:1028C00070B505465948007870B92C2D0CD10120FF
:1028D00056490870564802780078401C544B1870CE
:1028E000544820F8125081E05048007801280ED159
:1028F000122D0CD102204D4908704D480278007805
:10290000401C4B4B18704B4820F812506EE0474863
:102910000078022839D1464802780078401C444BA0
:102920001870444820F8125018460078062801DA3A
:10293000FF2D5BD103203D4908703D480078001F02
:102940003C4911F810003C49087039480078C01E15
:10295000384911F810003949087035480078801E50
:10296000344911F81000364908703348017835A011
:1029700005F0DEF93148017836A005F0D9F9304884
:10298000017839A005F0D4F930E028480078032810
:102990001DD127480078401E264931F810005B28D9
:1029A00005D1002022490870204908701EE000204F
:1029B0001E4908701E490870002405E000201D49CA
:1029C00021F81400601CC4B20A2CF7DB0EE00020D2
:1029D0001649087016490870002405E000201549C2
:1029E00021F81400601CC4B20A2CF7DB70BD10B5CE
:1029F000044621780748FFF7C3FC00BF4021054883
:102A0000FFF76EFD0128F9D110BD00000010014054
:102A100000040240004800408C00002054000020C8
:102A2000A4000020280000203400002059000020CD
:102A300058000020BC000020380000203600002094
:102A400037000020D1D5C9ABD6D6C0E03A202563E7
:102A500020202000D6D0D0C478D7F8B1EAA3BA2578
:102A60006420202000000000D6D0D0C479D7F8B16F
:102A7000EAA3BA25640D0A20202000001CB501211C
:102A80002020FEF7BDFB4FF4C060009001208DF8C0
:102A9000040000208DF8060003208DF805000120B9
:102AA0008DF8070069460448FEF70CF94FF4C06141
:102AB0000148FEF783F91CBD001402401CB501213A
:102AC0002020FEF79DFB01211020FEF799FB01213C
:102AD0000846FEF795FB4FF49C70009001208DF89E
:102AE000040000208DF8060003208DF80500012069
:102AF0008DF807006946FE48FEF7E4F81A200090BA
:102B00006946FC48FEF7DEF8022000906946FA4864
:102B1000FEF7D8F81CBD2DE9F05F2DED088B0546BA
:102B20000C4692461E46F548007818B1BDEC088B5D
:102B3000BDE8F09F002E00DA7642012D08D1A81ED4
:102B4000EF494861022008704FF47A70486093E0C2
:102B5000002D7DD000EE106AB8EEC00ADFEDE90A64
:102B600080EE801ABDEEC10AE54880ED040A00EE51
:102B7000104AB8EE400ADFEDE40A80EE801A11EE4A
:102B800010BA584605F058FE41EC1B0BB0EE4B0A4C
:102B9000F0EE6B0A05F080FAB0EE40AAF0EE60AA03
:102BA0009FEDDA0B53EC102B51EC1A0B05F07AFC6D
:102BB00041EC190B9FEDD70B53EC102B05F0AAFA43
:102BC00041EC180B05F0FEFBCD49486000EE104AC1
:102BD000B8EE400ADFEDD10A20EE200AB2EE041A68
:102BE000C0EE010A06FB06F000EE100AB8EEC00ABD
:102BF00080EE201ABCEEC10A10EE108AB8F1000F68
:102C000001D14FF0010805FB0AF004EB0A01B0FB0B
:102C1000F1F9B9F1000F01D14FF00109C14504D814
:102C2000A9EB0500B649C86006E008FB04F0B0FB5C
:102C3000FAF04042B249C860B148C06818B94FF0D4
:102C4000FF30AF49C860AE48C0682844AC4900E0D6
:102C500012E08860084640680969884206DCA84896
:102C60000069A74948600320087002E00120A449D8
:102C700008700020A24948610120A0490870A848B6
:102C8000FEF70CFD87B29E48D0F804B00BEBDB706A
:102C900007EB6001A248FEF7A2FE9948D0F804B005
:102CA0000BEBDB7007EB60019D48FEF79AFE944842
:102CB000D0F804B00BEBDB7007EB60019848FEF72F
:102CC00092FE8F48D0F804B00BEBDB7007EB60018D
:102CD0009348FEF78AFE012202219148FFF732F95C
:102CE000012204218E48FFF72DF9012208218C488A
:102CF000FFF728F9012210218948FFF723F9012263
:102D000000218748FEF774FF012204218448FEF762
:102D10006FFF8448006868B9002208218048FEF7E8
:102D200067FF00220C217E48FEF762FF01207D49EB
:102D3000086009E0012208217948FEF759FF0122C5
:102D40000C217748FEF754FF01217548FEF7E2FC9D
:102D500000BFEBE62DE9F05F2DED088B05460C4634
:102D600090461E466548007818B1BDEC088BBDE85A
:102D7000F09F002E05DA10215D48FEF71FF876421D
:102D800003E010215A48FEF71BF8012D08D1A81EB8
:102D900065494861022008704FF47A70486090E0FD
:102DA000002D7DD000EE106AB8EEC00ADFED550AA6
:102DB00080EE801ABDEEC10A5B4880ED040A00EE89
:102DC000104AB8EE400ADFED500A80EE801A11EE8C
:102DD00010BA584605F030FD41EC1B0BB0EE4B0A23
:102DE000F0EE6B0A05F058F9B0EE40AAF0EE60AADA
:102DF0009FED460B53EC102B51EC1A0B05F052FBD8
:102E000041EC190B9FED430B53EC102B05F082F9AD
:102E100041EC180B05F0D6FA4349486000EE104A21
:102E2000B8EE400ADFED3D0A20EE200AB2EE041AA9
:102E3000C0EE010A06FB06F000EE100AB8EEC00A6A
:102E400080EE201ABCEEC10A10EE107A07B90127F5
:102E500005FB08F004EB0801B0FBF1F9B9F1000F34
:102E600001D14FF00109B94504D8A9EB05002E495D
:102E7000C86006E007FB04F0B0FBF8F040422A49C6
:102E8000C8602948C06818B94FF0FF302649C860AB
:102E90002548C0682844244988600846406800E006
:102EA0000FE00969884206DC1F4800691E49486036
:102EB0000320087002E001201B49087000201A4915
:102EC000486101200D4908701548FEF7E7FB1FFA1D
:102ED00080FA0B48D0F804B00BEBDB700AEB600112
:102EE0000F48FEF77EFD012204210D481EE0000080
:102EF00000000240000C0240000802405E0000207A
:102F0000D0000020FF5199470040444400000000D9
:102F1000008100410000000000002440C2F5483F4D
:102F20000004004094000020E8000020FFF70AF8A9
:102F300001220421F748FEF75BFE0121F548FEF768
:102F4000E9FB00BF11E72DE9F05F2DED088B054689
:102F50000C4690461E46F048007818B1BDEC088B30
:102F6000BDE8F09F002E05DA2021EC48FDF726FF92
:102F7000764203E02021E948FDF722FF012D08D128
:102F8000A81EE7494861022008704FF47A70486033
:102F900090E0002D7ED000EE106AB8EEC00A5FED22
:102FA000270A80EE801ABDEEC10ADD4880ED040AD2
:102FB00000EE104AB8EE400A5FED2D0A80EE801A4E
:102FC00011EE10BA584605F037FC41EC1B0BB0EE81
:102FD0004B0AF0EE6B0A05F05FF8B0EE40AAF0EE97
:102FE00060AA1FED360B53EC102B51EC1A0B05F0B9
:102FF00059FA41EC190B1FED390B53EC102B05F06E
:1030000089F841EC180B05F0DDF9C549486000EE80
:10301000104AB8EE400A5FED3F0A20EE200AB2EEF9
:10302000041AC0EE010A06FB06F000EE100AB8EE24
:10303000C00A80EE201ABCEEC10A10EE107A07B961
:10304000012705FB08F004EB0801B0FBF1F9B9F129
:10305000000F01D14FF00109B94504D8A9EB0500D3
:10306000AF49C86006E007FB04F0B0FBF8F040424F
:10307000AB49C860AA48C06818B94FF0FF30A849EA
:10308000C860A748C0682844A549886008464068C9
:10309000096900E00EE0884206DCA1480069A04909
:1030A00048600320087002E001209D49087000205C
:1030B0009B4948610120984908709648FEF7EEFA4E
:1030C0001FFA80FA9648D0F804B00BEBDB700AEBDD
:1030D00060019048FEF785FC012204218D48FEF72F
:1030E00031FF012204218B48FEF782FD012189482E
:1030F000FEF710FB00BF31E71CB5002001900090E7
:10310000002402218348FEF734FF01287ED1854840
:10311000006808B9012000E000208249086002210F
:103120007C48FEF737FF7B48FEF7B8FA01907E49EE
:10313000486800EBD071019A02EB610100917B4974
:103140000098086073480099FEF749FC714800999F
:10315000FEF747FC6F480099FEF745FC6D48009963
:10316000FEF743FC72480078401C7149087008461D
:1031700000780228CAD1002008706B48007830B16E
:1031800001282FD0022877D003282AD175E000200B
:10319000684908606849086002215E48FEF7FAFE47
:1031A00004215C48FEF7F6FE08215A48FEF7F2FEBD
:1031B00010215848FEF7EEFE002211465548FEF752
:1031C00017FD00215348FEF7A5FA002211465B487F
:1031D000FEF70EFD00215948FEF79CFA00204E49EB
:1031E000087093E053480068401C524908604E48FC
:1031F0004069401C4C494861084640684E4909688E
:10320000022202FB00114848406900E081E0800092
:10321000401C91FBF0F044498988081A84B2424866
:1032200040684549096802FB00113F484069800039
:10323000401C91FBF0F200FB12103F4908603A4835
:1032400080683C490968884206D83748C0683649D2
:103250004861022008700EE033480069A0420ADB92
:10326000374804803048008A84B200203249086020
:1032700003202D49087049E015E02E480068401CE5
:103280002C4908602848008A84B227488068096869
:10329000884207D82448C0682349486128480488E0
:1032A0000220087032E023480068401C2149086071
:1032B0001D484069401C1C494861084640681E4939
:1032C0000968022202FB0011174840698000401C77
:1032D00091FBF0F014498988081A84B212484068BA
:1032E0001549096802FB00110F4840698000401C25
:1032F00091FBF0F200FB12100F4908600A48406988
:10330000002802DB00200849087000BF00BF064803
:1033100044601CBD000400405E000020000002402C
:1033200000010020A8824242D0000020600000205E
:1033300070000020680000206C0000200048014060
:10334000640000201CB5002001900090002404219E
:10335000FE48FEF70EFE01287DD1FD48006808B941
:10336000012000E00020FA4908600421F748FEF738
:1033700011FEF648FEF792F90190F649486800EB15
:10338000D071019A02EB61010091F3490098086045
:10339000EE480099FEF725FBF0480078401CEF4905
:1033A0000870084600780228D6D100200870E94845
:1033B000007830B1012816D0022874D0032811D12A
:1033C0005AE00020E6490860E64908600421DF4829
:1033D000FEF7E0FD00220421DC48FEF709FC002096
:1033E000E149087092E0DE480068401CDC49086052
:1033F000D8484069401CD749486108464068D949C7
:103400000968022202FB0011D24840698000401C7A
:1034100091FBF0F0CF498988081A84B2CD48406802
:10342000D049096802FB0011CA4840698000401C6D
:1034300091FBF0F200FB1210CA490860C548806891
:10344000C7490968884207D8C248C068C14948616D
:10345000022008700FE05CE0BE480069A0420ADB71
:10346000C2480480BB48008A84B20020BD4908607D
:103470000320B849087049E0B9480068401CB849C1
:103480000860B448008A84B2B248806809688842FB
:1034900007D8B048C068AF494861B44804880220E2
:1034A000087033E0FFE7AE480068401CAC49086094
:1034B000A8484069401CA749486108464068A94996
:1034C0000968022202FB0011A24840698000401CEA
:1034D00091FBF0F09F498988081A84B29D484068A2
:1034E000A049096802FB00119A4840698000401C0D
:1034F00091FBF0F200FB12109A4908609548406970
:10350000002802DB00209349087000BF00BF9148EB
:1035100044601CBD1CB500200190009000240821CF
:103520008A48FEF726FD01287ED18948006808B93F
:10353000012000E00020864908608D48D0F8A802EC
:1035400008B9012000E000208149091D0860082118
:103550007E48FEF71FFD7D48FEF7A0F801908549E3
:10356000486800EBD071019A02EB61010091774845
:103570000099FEF736FA80480078401C7E490870B2
:10358000084600780228CFD10020087079480078DA
:1035900030B1012816D0022875D0032811D15BE084
:1035A0000020764908607649086008216748FEF7E0
:1035B000F1FC002208216548FEF71AFB00206A4949
:1035C000087093E06D480068401C6C4908606948C9
:1035D0004069401C67494861084640686849096875
:1035E000022202FB0011634840698000401C91FBED
:1035F000F0F060498988081A84B25E4840686049E2
:10360000096802FB00115B4840698000401C91FB87
:10361000F0F200FB12105A4908605648806857497A
:103620000968884208D800E063E05248C068514900
:103630004861022008700EE04E480069A0420ADB93
:10364000504804804B48008A84B200204C490860EE
:1036500003204849087049E048480068401C474931
:1036600008604448008A84B24248806809688842F9
:1036700007D84048C0683F49486142480488022052
:10368000087033E0FFE73D480068401C3B49086094
:1036900038484069401C3749486108464068384905
:1036A0000968022202FB0011324840698000401C78
:1036B00091FBF0F02F498988081A84B22D484068A0
:1036C0002F49096802FB00112A4840698000401C0C
:1036D00091FBF0F200FB121029490860254840696F
:1036E000002802DB00202349087000BF00BF2148EA
:1036F00044601CBD10B586B00020059004900024E5
:10370000039002900190009010211048FEF731FCC8
:1037100001287DD110210D48FEF73CFC0B48FDF738
:10372000BDFF05901849486800EBD071059A02EB7F
:103730006101049105480499FEF757F99DF80000CE
:10374000401CC0B200909DF800001FE00004004043
:10375000A4824242E8000020600000207C0000209B
:1037600074000020780000205E000020720000201D
:1037700000804242000100208800002080000020DC
:10378000840000207E000020180100200228C0D103
:1037900000200090A948007830B1012814D00228F8
:1037A00068D003280FD151E0002002900190102131
:1037B000A348FEF7EFFB00220C21A148FEF718FA00
:1037C0000020A049087083E00298401C02909B48AA
:1037D0004069401C994948610846406802220199A5
:1037E00002FB0011954840698000401C91FBF0F0FD
:1037F00092498988081A84B290484068019902FB6E
:1038000000118E4840698000401C91FBF0F200E0FE
:1038100061E000FB1210019088488068029988429C
:1038200006D88648C06885494861022008700CE0C7
:1038300082480069A04208DB03948048008A84B271
:103840000020019003207D49087041E00298401C4F
:1038500002907A48008A84B27B4880680299884244
:1038600007D87648C06875494861BDF80C40022009
:1038700008702DE00298401C029070484069401C7E
:103880006E494861084640680222019902FB001116
:103890006A4840698000401C91FBF0F067498988C4
:1038A000081A84B265484068019902FB0011634818
:1038B00040698000401C91FBF0F200FB1210019067
:1038C0005E484069002802DB00205C49087000BFA8
:1038D00000BF5A48446006B010BD2DE9F04F89B0D2
:1038E00006460F4690469A464FF496700890FA2086
:1038F0000790152415250020049003900290019054
:103900000090214604EBD1725210284605EBD0738B
:1039100002EB6302F31908FB123904EBD172521067
:1039200005EBD07302EB6302F31B08FB123B04EBC5
:10393000D172521005EBD07302EB6302F31908FB4E
:103940000232069204EBD172521005EBD07302EBF7
:103950006302F31B08FB02320592B9F1000F06DA8D
:1039600008213A48FDF72AFAC9F1000903E00821C5
:103970003648FDF725FABBF1000F06DA102133486F
:10398000FDF71CFACBF1000B03E010212F48FDF7E7
:1039900017FA0698002807DA20212C48FDF710FABC
:1039A00006984042069003E020212848FDF706FAD9
:1039B0000598002808DA4FF480712448FDF700FAD2
:1039C00005984042059004E04FF480711F48FDF7D0
:1039D000F5F94B465046DDE90721FFF79CF809B0A1
:1039E000BDE8F08F10B500211948FDF793FE0021C6
:1039F0001348FDF78FFE00211648FDF78BFE0021CE
:103A00001548FDF787FE10BD10B501211048FDF7E0
:103A100081FE01210A48FDF77DFE01210D48FDF7D9
:103A200079FE01210C48FDF775FE10BD10B5FFF7BA
:103A300063FB10BD10B5FFF785FC10BD1801002019
:103A4000000400405E000020000100200000024051
:103A500000480140004001400044014000B58BB0E7
:103A600001210420FDF726FC01210846FDF711FC89
:103A700001210804FDF71EFC01210220FDF7C0FB17
:103A800001210846FDF7BCFB01210820FDF7B8FB2A
:103A900001210220FDF7FDFB02220621FE48FDF771
:103AA0009CF901221146FC48FDF797F902220721F3
:103AB000FA48FDF792F903220521F948FDF78DF93F
:103AC000E220099002208DF8280003208DF82900BB
:103AD00000208DF82A0001208DF82B0009A9EF485D
:103AE000FDF7F0F809A9EF48FDF7ECF809A9EA4855
:103AF000FDF7E8F8EC48FEF76AFA4FF08040FEF771
:103B000066FAEA48FEF763FAE948FEF760FA5320DE
:103B1000ADF818000020ADF81A004FF6FF700790BE
:103B20000020ADF820008DF8220006A9DE48FDF740
:103B300068FD06A94FF08040FDF763FD00208DF879
:103B40002200ADF82000ADF81A00A720ADF818004B
:103B50004FF6FF70079006A9D548FDF752FD3020BB
:103B6000ADF804000120ADF806000020ADF810000B
:103B7000039001A9CC48FDF7D9FD01A9CA48FDF77A
:103B80000EFE01A94FF08040FDF709FE01A9C748CC
:103B9000FDF705FE7020ADF804000120ADF8060029
:103BA0000020ADF81000039001A9C148FDF7BEFD4B
:103BB0000021BD48FDF747FF0021BB48FDF74CFF42
:103BC00000214FF08040FDF747FF0021B848FDF786
:103BD0003AFF00221146B448FEF70AF800220421F9
:103BE000B148FEF705F8002204210807FEF700F8A7
:103BF00000220821AF48FDF7FBFF0221AA48FEF78B
:103C0000B5F90421A848FEF7B1F90421A748FEF749
:103C1000ADF90221A648FEF7A9F904210807FEF72D
:103C2000A5F901220221A048FEF78CF90122022108
:103C30009F48FEF787F9012204219B48FEF782F98D
:103C4000012204210807FEF77DF94FF4A060FCF77C
:103C50005FFC1D208DF8000001208DF8030000207E
:103C60008DF801008DF802006846FCF756FC18201C
:103C70008DF8000001208DF803008DF801008DF80B
:103C800002006846FCF749FC1E208DF80000012068
:103C90008DF8030000208DF8010001208DF802004E
:103CA0006846FCF73AFC01208DF803008DF801000E
:103CB0008DF802001C208DF800006846FCF72DFCF2
:103CC0000BB000BD00B58BB001214804FDF7F2FA3E
:103CD00001218804FDF7EEFA01210804FDF7EAFA54
:103CE00001212020FDF78CFA01210846FDF788FA12
:103CF00001211020FDF784FA01210220FDF7C9FA05
:103D0000022206216448FDF768F803220721624871
:103D1000FDF763F8032206215F48FDF75EF80322F2
:103D200005215F48FDF759F8E220099002208DF83F
:103D3000280003208DF8290000208DF82A0001209A
:103D40008DF82B0009A95448FCF7BCFF09A9544879
:103D5000FCF7B8FF09A95848FCF7B4FF5320ADF8A9
:103D600018000020ADF81A0040F2F3100790002070
:103D7000ADF8200006A94C48FDF743FCA720ADF89C
:103D8000180006A94D48FDF73CFC06A94C48FDF774
:103D900038FC06A94648FDF734FC6020ADF8040065
:103DA0000120ADF806000020ADF81000322003908D
:103DB00001A93D48FDF7BAFC01A94048FDF7B6FC52
:103DC00001A93F48FDF7B2FC01A93948FDF7AEFC57
:103DD00008213548FDF737FE08213548FDF733FE49
:103DE00008213648FDF72FFE08213548FDF72BFE48
:103DF00001212D48FDF770FC01212D48FDF76CFCD9
:103E000001212E48FDF768FC01212D48FDF764FCD7
:103E100001212548FDF77EFC01212548FDF77AFCAC
:103E200001212748FDF776FC01212448FDF772FCAB
:103E30000BB000BD30B58BB004460D460121042007
:103E4000FDF727FA01210820FDF7DAF902220C21FB
:103E50001448FCF7C2FF4FF48050099002208DF8FF
:103E6000280003208DF8290000208DF82A00012069
:103E70008DF82B0009A90B48FCF724FFA8B2ADF878
:103E800018000020ADF81A000794ADF8200006A92C
:103E90000648FDF7B6FB15E00000024000040240B2
:103EA00000100240000C02400004004000080040E6
:103EB00000400140000C0040001402400048014056
:103EC000004401406020ADF804000120ADF8060078
:103ED0000220ADF8100001A96C48FDF727FC08216D
:103EE0006A48FDF7B0FD01216848FDF7F5FB0121A7
:103EF0006648FDF70FFC0BB030BD00B58BB001215B
:103F00000420FDF7C6F901210820FDF779F94FF4E7
:103F10007040069002208DF81C0000208DF81E00D5
:103F200001208DF81F0003208DF81D0006A95848B8
:103F3000FCF7C8FE02220C215548FCF74EFF022276
:103F40000D215348FCF749FF02220E215048FCF78F
:103F500044FF02220F214E48FCF73FFF2920ADF815
:103F600020000020ADF8220042F20F7009900020DE
:103F7000ADF8280008A94548FDF743FB0020ADF83F
:103F800014007020ADF804000120ADF806000220F6
:103F9000ADF8100001A93D48FDF7C8FB01A93B4859
:103FA000FDF7FDFB01A93948FDF746FC01A937489B
:103FB000FDF7A8FC08213548FDF745FD08213348E9
:103FC000FDF74AFD08213148FDF753FD08212F4830
:103FD000FDF758FD01212D48FDF77EFB01212B48FF
:103FE000FDF798FB0BB000BD00B58BB00121082098
:103FF000FDF74FF901210846FDF702F902221146AB
:104000002448FCF7EAFE0420099002208DF82800DD
:1040100003208DF8290000208DF82A0001208DF85A
:104020002B0009A91B48FCF74DFE2920ADF818000C
:104030000020ADF81A0042F20F7007900020ADF892
:10404000200006A91448FDF7DCFA01A8FDF792FC50
:104050000020ADF814007020ADF804000120ADF888
:1040600006000220ADF8100001A90B48FDF7E4FBA3
:1040700008210948FDF7FDFC01210748FDF72CFB4D
:1040800001210548FDF746FB0BB000BD00080040CC
:10409000000C024000000240000C004001B5BDF8D9
:1040A00000000090BDF80000FE49088008BD01B581
:1040B000BDF800000090BDF80000FA49891C088096
:1040C00008BD08B5F748801C00880090BDF80000C6
:1040D00008BDF44A10804FF0D842A2F88010704713
:1040E00010B504462046FFF7D9FF0520FEF772FA07
:1040F000FFF7E7FF10BDEC480089EA4908807047E8
:10410000E849891C0880704730B5014601F01F045A
:10411000C1F34513CA0AE50205EB43151544A8B2DD
:1041200030BD00BF011EA0F10102D0B2FAD170472C
:1041300010B502460C46DC48808841F6631188427F
:1041400047D1D9488079A8B9D7480088401E801A3D
:1041500082B2D5494889FFF7A1FF0020FFF7A7FFEA
:104160000020FFF7A4FF1012FFF7A1FFD0B2FFF766
:104170009EFF16E0CC494889FFF790FF1012FFF729
:1041800096FFD0B2FFF793FFC7490988491EC1F3D4
:104190000F20FFF78CFFC4490978491EC8B2FFF70A
:1041A00086FFC1498889FFF779FF2012FFF77FFF5B
:1041B000E0B2FFF77CFFBC494988491EC1F30F20DC
:1041C000FFF775FFB8498978491EC8B2FFF76FFF3E
:1041D0003AE0B548808845F21051884220D1B24972
:1041E0004889FFF75BFF1012FFF761FFAE4949896D
:1041F000491C88B2FFF752FFD0B2FFF758FFAA4917
:104200008889FFF74BFF2012FFF751FFA6498989E4
:10421000491C88B2FFF742FFE0B2FFF748FF13E006
:10422000A1494889FFF73AFF1012FFF740FFD0B2CB
:10423000FFF73DFF9C498889FFF730FF2012FFF709
:1042400036FFE0B2FFF733FF10BD2DE9F041054620
:104250000E4600240027A04693480088A84203DDAC
:1042600091484088B04202DC0020BDE8F081314630
:104270002846FFF75DFF8C48808845F21051884240
:1042800004D14FF43850FFF709FF02E02E20FFF76A
:1042900005FFFFF716FF04468348808841F6631147
:1042A000884201D12046E0E7FFF70BFF04467E4835
:1042B000808847F29671884201D12046D5E7FFF702
:1042C00000FF8046E7B24FF6FF7000EA0727E012D2
:1042D000C002B91240EA411040EAE820C5E700B543
:1042E0007148808845F21051884204D14FF424501F
:1042F000FFF7D4FE02E02920FFF7D0FE00BD00B595
:104300006948808845F21051884204D14FF420500A
:10431000FFF7C4FE02E02820FFF7C0FE00BDF0B5A5
:1043200005460024002760488079012805D15E48B1
:10433000808841F66311884208D15B488079F0B9E2
:104340005948808841F66311884218D1082D15D24A
:10435000DFE805F00406080A0C0E101206250DE031
:1043600007250BE0042509E0052507E0012505E008
:10437000002503E0032501E0022500BF00BF082D52
:104380001CD2DFE805F00406090C0F12151800BF57
:1043900014E044F0800411E044F040040EE044F0E6
:1043A000C0040BE044F0200408E044F0600405E0A1
:1043B00044F0A00402E044F0E00400BF00BF3A482B
:1043C000808845F21051884202D14FF4585700E0DE
:1043D00036273548808849F2413188420BD032482F
:1043E000808847F28971884205D02F48808847F23B
:1043F0009671884201D144F0080421463846FFF7FF
:1044000068FE2948808841F6631188421DD004F077
:10441000200068B12448008823494988884214DA7A
:1044200021480688408820490880084646800CE0DC
:104430001D4800881C494988884206DD1A480688BC
:10444000408819490880084646801748808845F208
:104450001051884257D114494889FFF71FFE0020A8
:10446000FFF725FE10494989491C88B2FFF716FE5F
:104470000020FFF71CFE0C494989891C88B2FFF710
:104480000DFE09490988491EC1F30F20FFF70FFEF1
:1044900005494989C91C88B2FFF700FE024909781D
:1044A000491E03E07E00006C30010020C8B2FFF717
:1044B000FEFDFE498889FFF7F1FD0020FFF7F7FDBB
:1044C000FA498989491C88B2FFF7E8FD0020FFF707
:1044D000EEFDF6498989891C88B2FFF7DFFDF349B3
:1044E0004988491EC1F30F20FFF7E1FDEF49898993
:1044F000C91C88B2FFF7D2FDEC498978491EC8B2C1
:10450000FFF7D5FD2DE0E9494889FFF7C7FD0020F9
:10451000FFF7CDFD0020FFF7CAFDE4490988491ED9
:10452000C1F30F20FFF7C3FDE0490978491EC8B267
:10453000FFF7BDFDDD498889FFF7B0FD0020FFF7DB
:10454000B6FD0020FFF7B3FDD8494988491EC1F3E5
:104550000F20FFF7ACFDD5498978491EC8B2FFF797
:10456000A6FDF0BD30B504460D4629462046FFF7AE
:10457000DFFDFFF7C0FDCE480088CE49088030BD82
:1045800030B504460D46C948808845F2105188422E
:1045900020D1C6494889FFF781FD2012FFF787FD2A
:1045A000C2494989491C88B2FFF778FDE0B2FFF79C
:1045B0007EFDBE498889FFF771FD2812FFF777FD60
:1045C000BA498989491C88B2FFF768FDE8B2FFF74C
:1045D0006EFD42E0B548808841F66311884228D1DB
:1045E000B248807920B9B1480088401E001B84B2CF
:1045F000AE494889FFF752FD2012FFF758FDE0B29F
:10460000FFF755FD2012FFF752FDE0B2FFF74FFD17
:10461000A6498889FFF742FD2812FFF748FDE8B256
:10462000FFF745FD2812FFF742FDE8B2FFF73FFD17
:1046300013E09E494889FFF731FD2012FFF737FD4F
:10464000E0B2FFF734FD99498889FFF727FD28126A
:10465000FFF72DFDE8B2FFF72AFD94480089954940
:10466000891E08804FF0D840A0F8802030BD70B57A
:104670002DED048B0446BE20FFF710FD0520FFF74B
:1046800016FD204603F0FBFE41EC190B9FED8A0B53
:1046900053EC102B03F006FF41EC180B03F0C2FEA5
:1046A00085B22846FFF703FD0120FFF700FDFF203C
:1046B000FFF7FDFC0020FFF7FAFC0020FFF7F7FCF6
:1046C000BDEC048B70BD10B5044678488471002C95
:1046D00058D1F020754908804FF4A07048800846F2
:1046E000808845F21051884210D14FF430506F4904
:1046F00008814FF4285048814FF42C5088814FF4A2
:10470000F07008804FF4487048801AE0674880884D
:1047100041F6631188420DD12C20644908812B2079
:1047200048812A2088814FF4F07008804FF4487047
:10473000488006E02C205D4908812A2048812B20F2
:1047400088815A48808845F21031884205D0574800
:10475000808847F29671884206D14FF4A070534981
:1047600008804FF4F07048805048808849F6060170
:10477000884258D14FF4F0704C4908804FF448708B
:10478000488050E04FF4A07048490880F0204880ED
:104790000846808845F21051884210D14FF43050BD
:1047A000424908814FF4285048814FF42C508881A9
:1047B0004FF4487008804FF4F070488020E03B4888
:1047C000808841F66311884205D03848808849F6D0
:1047D000060188420DD12C20344908812A204881C5
:1047E0002B2088814FF4487008804FF4F070488087
:1047F00006E02C202D4908812A2048812B20888121
:104800002A48808845F21031884205D027488088A0
:1048100047F29671884206D14FF4F0702349088020
:104820004FF4A07048800020FFF779FD10BD2DE9FE
:10483000F04104460D461E46A018401E87B2A81936
:10484000401E1FFA80F81948808841F6631188429B
:104850003CD116488079012838D014480088801A45
:10486000001B84B2A819401E86B210494889FFF780
:1048700015FC2012FFF71BFCE0B2FFF718FCA11893
:10488000491EC1F30F20FFF712FCA118491EC8B240
:10489000FFF70DFC05498889FFF700FC2812FFF798
:1048A00006FCE8B2FFF703FC301209E030010020FB
:1048B0009E0000208000006C6666666666660440A6
:1048C000FFF7F5FBF0B2FFF7F2FB6EE0FE488088E1
:1048D00045F21051884246D1FB494889FFF7DEFB7B
:1048E0002012FFF7E4FBF8494989491C88B2FFF719
:1048F000D5FBE0B2FFF7DBFBF3494989891C88B29D
:10490000FFF7CCFB3812FFF7D2FBEF494989C91CEE
:1049100088B2FFF7C3FBF8B2FFF7C9FBEA49888901
:10492000FFF7BCFB2812FFF7C2FBE7498989491C46
:1049300088B2FFF7B3FBE8B2FFF7B9FBE249898918
:10494000891C88B2FFF7AAFB4FEA2820FFF7AFFBCC
:10495000DD498989C91C88B2FFF7A0FB08F0FF0078
:10496000FFF7A5FB21E0D8494889FFF797FB201204
:10497000FFF79DFBE0B2FFF79AFB3812FFF797FBBA
:10498000F8B2FFF794FBD0498889FFF787FB28121C
:10499000FFF78DFBE8B2FFF78AFB4FEA2820FFF70D
:1049A00086FB08F0FF00FFF782FBBDE8F08170B5E1
:1049B00004460026C448058840884543002108462F
:1049C000FFF7B6FBFFF797FB00BF02E0BF4804808C
:1049D000761CAE42FAD370BD00B5A1B00020209085
:1049E00001217A20FCF70CFC01210846FCF740FC71
:1049F0004FF400401E9001208DF87C0000208DF8BF
:104A00007E0002208DF87D0001208DF87F001EA918
:104A1000AF48FCF757F94CF233701E9002208DF826
:104A20007C0000208DF87E0003208DF87D000120A1
:104A30008DF87F001EA9A748FCF744F94FF6807057
:104A40001E9002208DF87C0000208DF87E0003204F
:104A50008DF87D0001208DF87F001EA99E48FCF78F
:104A600031F94FF480501E9002208DF87C00002018
:104A70008DF87E0003208DF87D0001208DF87F00E9
:104A80001EA99648FCF71EF94FF480501E90022094
:104A90008DF87C0000208DF87E0003208DF87D00CD
:104AA00001208DF87F001EA98D48FCF70BF90C2220
:104AB00000218848FCF791F90C2201218548FCF778
:104AC0008CF90C2204218348FCF787F90C2205217C
:104AD0008048FCF782F90C2208217E48FCF77DF91A
:104AE0000C2209217B48FCF778F90C220A2179482D
:104AF000FCF773F90C220E217648FCF76EF90C22B4
:104B00000F217448FCF769F90C2207217248FCF761
:104B100064F90C2208217048FCF75FF90C22092186
:104B20006D48FCF75AF90C220A216B48FCF755F93D
:104B30000C220B216848FCF750F90C2211466648FC
:104B4000FCF74BF90C220D216348FCF746F90C22C7
:104B50000E216148FCF741F90C220F215E48FCF759
:104B60003CF90C2211465D48FCF737F90C2211463E
:104B70005B48FCF732F90F200890002009903C2098
:104B80000A9000200B900C900D900E90092001903F
:104B900000200290082003900020049005900690C9
:104BA000079006200F900020109011901020129076
:104BB0000020139015901490169017904FF4805089
:104BC0001890002019904FF480401A9000201B90FC
:104BD00008A81C9001A81D900FA8FBF724FD012137
:104BE0000620FBF7ABFD3220FDF73CFDD320FFF79D
:104BF00055FAFFF766FA34498880FFF762FA3249BE
:104C00008880FFF75EFA30498880084680884FF632
:104C1000FF7101EA00202C498880FFF752FA2A49E7
:104C200089880843284988800846808849F24131AC
:104C300088427DD00420FFF731FAFFF742FA22497B
:104C40008880FFF73EFA20498880FFF73AFA1E492C
:104C50008880084680884FF6FF7101EA00201A49D3
:104C60008880FFF72EFA18498988084316498880FA
:104C70000846808848F25251884203D147F2897031
:104C8000114988801048808847F289718842D0D0C5
:104C9000D420FFF703FAFFF714FA0B498880FFF7D7
:104CA00010FA09498880FFF70CFA074988800846FE
:104CB00080884FF6FF7101EA002003498880FFF7E2
:104CC00000FA014989880DE0300100208000006C65
:104CD00000040240000C0240001002400014024098
:104CE000001802400843FE4988800846808845F243
:104CF000103188429DD0D320FFF7D0F9FFF7E1F9BA
:104D0000F7498880FFF7DDF9F5498880FFF7D9F981
:104D1000F3498880084680884FF6FF7101EA002039
:104D2000EF498880FFF7CDF9ED498988084300E015
:104D300095E0EB4988800846808847F29671884262
:104D4000A5D055214FF47040FFF7C3F9AA214FF2C7
:104D50000100FFF7BEF952214FF20200FFF7B9F947
:104D600008214FF20300FFF7B4F901214FF20400CC
:104D7000FFF7AFF94FF44540FFF790F9FFF7A1F9BE
:104D8000D7498880084680884FF6FF7101EA0020E5
:104D9000D34988804CF20150FFF780F9FFF791F971
:104DA000CF4989880843CE4988800520FDF75AFC01
:104DB000CB488088B0F5004F03D145F21050C84968
:104DC0008880C748808845F21051884247D0D32058
:104DD000FFF764F9FFF775F9C1498880FFF771F9AA
:104DE000BF498880FFF76DF9BD49888008468088F3
:104DF0004FF6FF7101EA0020B9498880FFF761F999
:104E0000B74989880843B64988800846808849F6AA
:104E10000601884223D0A120FFF740F9FFF751F99E
:104E2000AF498880FFF74DF9AD49888008468088F2
:104E30004FF6FF7101EA0020A9498880FFF741F988
:104E4000A74989880843A64988800846808845F292
:104E50006171884203D141F66310A1498880A0485E
:104E6000808849F24131884223D09D48808847F2AA
:104E7000897188421DD09A48808845F21031884255
:104E800017D09748808845F21051884211D0944835
:104E9000808841F6631188420BD09148808847F2A0
:104EA0009671884205D08E48808849F6060188426E
:104EB0002CD18C48006820F00F004FF02041C1F841
:104EC0001C010846D0F81C0120F47060C1F81C01D8
:104ED0000846D0F81C0140F00400C1F81C018048CD
:104EE000808847F28971884208D17E48006840F482
:104EF00080604FF02041C1F81C0107E0794800684C
:104F000040F480604FF02041C1F81C017448818852
:104F100075A002F00DFF7248808849F24131884245
:104F20007ED1CF20FFF7BAF80020FFF7C0F8C120EC
:104F3000FFF7BDF83020FFF7BAF8ED20FFF7AEF825
:104F40006420FFF7B4F80320FFF7B1F81220FFF751
:104F5000AEF88120FFF7ABF8E820FFF79FF8852037
:104F6000FFF7A5F81020FFF7A2F87A20FFF79FF8C7
:104F7000CB20FFF793F83920FFF799F82C20FFF7A3
:104F800096F80020FFF793F83420FFF790F80220FE
:104F9000FFF78DF8F720FFF781F82020FFF787F85B
:104FA000EA20FFF77BF80020FFF781F80020FFF7E9
:104FB0007EF8C020FFF772F81B20FFF778F8C120B9
:104FC000FFF76CF80120FFF772F8C520FFF766F8CD
:104FD0003020FFF76CF83020FFF769F8C720FFF7A3
:104FE0005DF8B720FFF763F83620FFF757F8482041
:104FF000FFF75DF83A20FFF751F85520FFF757F813
:10500000B120FFF74BF80020FFF751F81A20FFF707
:105010004EF8B620FFF742F80A20FFF748F800E004
:10502000A4E0A220FFF743F8F220FFF737F80020B2
:10503000FFF73DF82620FFF731F80120FFF737F89A
:10504000E020FFF72BF80F20FFF731F82A20FFF7B9
:105050002EF82820FFF72BF80820FFF728F80E205D
:10506000FFF725F80820FFF722F85420FFF71FF874
:10507000A920FFF71CF84320FFF719F80A20FFF7D3
:1050800016F80F20FFF713F80020FFF710F80020A4
:10509000FFF70DF80020FFF70AF80020FFF707F8E8
:1050A000E120FEF7FBFF0020FFF701F81520FEF7D7
:1050B000FEFF1720FEF7FBFF0720FEF7F8FF112089
:1050C000FEF7F5FF0620FEF7F2FF2B20FEF7EFFFBD
:1050D0005620FEF7ECFF3C20FEF7E9FF05200BE031
:1050E000300100201C0100A0204C43442049443AD8
:1050F00025780D0A00000000FEF7D9FF1020FEF70A
:10510000D6FF0F20FEF7D3FF3F20FEF7D0FF3F2052
:10511000FEF7CDFF0F20FEF7CAFF2B20FEF7BEFFE4
:105120000020FEF7C4FF0020FEF7C1FF0120FEF7BC
:10513000BEFF3F20FEF7BBFF2A20FEF7AFFF002097
:10514000FEF7B5FF0020FEF7B2FF0020FEF7AFFF2D
:10515000EF20FEF7ACFF1120FEF7A0FF7820FDF74F
:1051600081FA2920FEF79AFF02F03ABBFE488088B8
:1051700047F2897188427CD11120FEF78FFF782099
:10518000FDF770FA3620FEF789FF0020FEF78FFF4B
:105190003A20FEF783FF0520FEF789FFB220FEF7D5
:1051A0007DFF0C20FEF783FF0C20FEF780FF002020
:1051B000FEF77DFF3320FEF77AFF3320FEF777FFFF
:1051C000B720FEF76BFF3520FEF771FFBB20FEF71F
:1051D00065FF3220FEF76BFFC020FEF75FFF0C205B
:1051E000FEF765FFC220FEF759FF0120FEF75FFFC3
:1051F000C320FEF753FF1020FEF759FFC420FEF72F
:105200004DFF2020FEF753FFC620FEF747FF0F207B
:10521000FEF74DFFD020FEF741FFA420FEF747FF29
:10522000A120FEF744FFE020FEF738FFD020FEF774
:105230003EFF0020FEF73BFF0220FEF738FF07206D
:10524000FEF735FF0A20FEF732FF2820FEF72FFF7A
:105250003220FEF72CFF4420FEF729FF4220FEF704
:1052600026FF0620FEF723FF0E20FEF720FF122068
:1052700000E056E0FEF71BFF1420FEF718FF172092
:10528000FEF715FFE120FEF709FFD020FEF70FFF24
:105290000020FEF70CFF0220FEF709FF0720FEF7B3
:1052A00006FF0A20FEF703FF2820FEF700FF31204B
:1052B000FEF7FDFE5420FEF7FAFE4720FEF7F7FE4C
:1052C0000E20FEF7F4FE1C20FEF7F1FE1720FEF77D
:1052D000EEFE1B20FEF7EBFE1E20FEF7E8FE2A2066
:1052E000FEF7DCFE0020FEF7E2FE0020FEF7DFFE08
:1052F0000020FEF7DCFEEF20FEF7D9FE2B20FEF7A4
:10530000CDFE0020FEF7D3FE0020FEF7D0FE0120E8
:10531000FEF7CDFE3F20FEF7CAFE2920FEF7BEFEB7
:1053200022E79148808845F21031884240F07C871E
:10533000ED20FEF7B3FE0120FEF7B9FEFE20FEF7DA
:10534000B6FEEE20FEF7AAFEDE20FEF7B0FE21201C
:10535000FEF7ADFEF120FEF7A1FE0120FEF7A7FE4D
:10536000DF20FEF79BFE1020FEF7A1FEC420FEF713
:1053700095FE8F20FEF79BFEC620FEF78FFE0020D5
:10538000FEF795FEE220FEF792FEE220FEF78FFE8A
:10539000E220FEF78CFEBF20FEF780FEAA20FEF77B
:1053A00086FEB020FEF77AFE0D20FEF780FE00207C
:1053B000FEF77DFE0D20FEF77AFE0020FEF777FE59
:1053C0001120FEF774FE0020FEF771FE1920FEF793
:1053D0006EFE0020FEF76BFE2120FEF768FE002027
:1053E000FEF765FE2D20FEF762FE0020FEF75FFE51
:1053F0003D20FEF75CFE0020FEF759FE5D20FEF723
:1054000056FE0020FEF753FE5D20FEF750FE002002
:10541000FEF74DFEB120FEF741FE8020FEF747FE6D
:105420000020FEF744FE8B20FEF741FE0020FEF731
:105430003EFE9620FEF73BFE0020FEF738FEB2202F
:10544000FEF72CFE0020FEF732FE0020FEF72FFEB6
:105450000220FEF72CFE0020FEF729FE0320FEF7B7
:1054600026FE0020FEF723FEB320FEF717FE0020E5
:10547000FEF71DFE0020FEF71AFE0020FEF717FEC5
:105480000020FEF714FE0020FEF711FE0020FEF7BC
:105490000EFE0020FEF70BFE0020FEF708FE0020A7
:1054A000FEF705FE0020FEF702FE0020FEF7FFFDDE
:1054B0000020FEF7FCFD0020FEF7F9FD0020FEF7BE
:1054C000F6FD0020FEF7F3FD0020FEF7F0FD0020C2
:1054D000FEF7EDFD0020FEF7EAFD0020FEF7E7FDF8
:1054E0000020FEF7E4FD0020FEF7E1FD0020FEF7BE
:1054F000DEFD0020FEF7DBFD0020FEF7D8FDB42026
:10550000FEF7CCFD8B20FEF7D2FD0020FEF7CFFD8D
:105510009620FEF7CCFD0020FEF7C9FDA120FEF786
:10552000C6FD0020FEF7C3FDB520FEF7B7FD022043
:10553000FEF7BDFD0020FEF7BAFD0320FEF7B7FD24
:105540000020FEF7B4FD0420FEF7B1FD0020FEF7B9
:10555000AEFDB620FEF7A2FD0020FEF7A8FD00205C
:10556000FEF7A5FDB72001E030010020FEF796FD13
:105570000020FEF79CFD0020FEF799FD3F20FEF77E
:1055800096FD0020FEF793FD5E20FEF790FD0020C3
:10559000FEF78DFD6420FEF78AFD0020FEF787FDF3
:1055A0008C20FEF784FD0020FEF781FDAC20FEF785
:1055B0007EFD0020FEF77BFDDC20FEF778FD00205D
:1055C000FEF775FD7020FEF772FD0020FEF76FFDFF
:1055D0009020FEF76CFD0020FEF769FDEB20FEF742
:1055E00066FD0020FEF763FDDC20FEF760FD002075
:1055F000FEF75DFDB820FEF751FD0020FEF757FDD8
:105600000020FEF754FD0020FEF751FD0020FEF7BC
:105610004EFD0020FEF74BFD0020FEF748FD002068
:10562000FEF745FD0020FEF742FDBA20FEF736FDED
:105630002420FEF73CFD0020FEF739FD0020FEF798
:1056400036FD0020FEF733FDC120FEF727FD2020A8
:10565000FEF72DFD0020FEF72AFD5420FEF727FD62
:105660000020FEF724FDFF20FEF721FD0020FEF7BD
:105670001EFDC220FEF712FD0A20FEF718FD0020D5
:10568000FEF715FD0420FEF712FD0020FEF70FFDCA
:10569000C320FEF703FD3C20FEF709FD0020FEF7C6
:1056A00006FD3A20FEF703FD0020FEF700FD39203D
:1056B000FEF7FDFC0020FEF7FAFC3720FEF7F7FCB2
:1056C0000020FEF7F4FC3C20FEF7F1FC0020FEF782
:1056D000EEFC3620FEF7EBFC0020FEF7E8FC322063
:1056E000FEF7E5FC0020FEF7E2FC2F20FEF7DFFCD2
:1056F0000020FEF7DCFC2C20FEF7D9FC0020FEF792
:10570000D6FC2920FEF7D3FC0020FEF7D0FC262093
:10571000FEF7CDFC0020FEF7CAFC2420FEF7C7FCF4
:105720000020FEF7C4FC2420FEF7C1FC0020FEF799
:10573000BEFC2320FEF7BBFC0020FEF7B8FC3C209B
:10574000FEF7B5FC0020FEF7B2FC3620FEF7AFFCFA
:105750000020FEF7ACFC3220FEF7A9FC0020FEF78B
:10576000A6FC2F20FEF7A3FC0020FEF7A0FC2C20B7
:10577000FEF79DFC0020FEF79AFC2920FEF797FC1F
:105780000020FEF794FC2620FEF791FC0020FEF797
:105790008EFC2420FEF78BFC0020FEF788FC2420E2
:1057A000FEF785FC0020FEF782FC2320FEF77FFC3D
:1057B0000020FEF77CFCC420FEF770FC6220FEF7A0
:1057C00076FC0020FEF773FC0520FEF770FC00203D
:1057D000FEF76DFC8420FEF76AFC0020FEF767FCF4
:1057E000F020FEF764FC0020FEF761FC1820FEF7B5
:1057F0005EFC0020FEF75BFCA420FEF758FC0020B6
:10580000FEF755FC1820FEF752FC0020FEF74FFC77
:105810005020FEF74CFC0020FEF749FC0C20FEF760
:1058200046FC0020FEF743FC1720FEF740FC00205A
:10583000FEF73DFC9520FEF73AFC0020FEF737FC12
:10584000F320FEF734FC0020FEF731FCE620FEF7E3
:105850002EFC0020FEF72BFCC520FEF71FFC32209B
:10586000FEF725FC0020FEF722FC4420FEF71FFC7B
:105870000020FEF71CFC6520FEF719FC0020FEF757
:1058800016FC7620FEF713FC0020FEF710FC8820A3
:10589000FEF70DFC0020FEF70AFCC620FEF7FEFB1B
:1058A0002020FEF704FC0020FEF701FC1720FEF785
:1058B000FEFB0020FEF7FBFB0120FEF7F8FB0020BB
:1058C000FEF7F5FBC720FEF7E9FB0020FEF7EFFB34
:1058D0000020FEF7ECFB0020FEF7E9FB0020FEF7BE
:1058E000E6FBC820FEF7DAFB0020FEF7E0FB002015
:1058F000FEF7DDFB0020FEF7DAFB0020FEF7D7FB0A
:10590000C920FEF7CBFB0020FEF7D1FB0020FEF7FD
:10591000CEFB0020FEF7CBFB0020FEF7C8FB0020EB
:10592000FEF7C5FB0020FEF7C2FB0020FEF7BFFB21
:105930000020FEF7BCFB0020FEF7B9FB0020FEF7BD
:10594000B6FB0020FEF7B3FB0020FEF7B0FB002003
:10595000FEF7ADFB0020FEF7AAFB0020FEF7A7FB39
:105960000020FEF7A4FBE020FEF798FB1620FEF7D0
:105970009EFB0020FEF79BFB1C20FEF798FB0020FF
:10598000FEF795FB2120FEF792FB0020FEF78FFB30
:105990003620FEF78CFB0020FEF789FB4620FEF741
:1059A00086FB0020FEF783FB5220FEF780FB0020E1
:1059B000FEF77DFB6420FEF77AFB0020FEF777FB05
:1059C0007A20FEF774FB0020FEF771FB8B20FEF7B8
:1059D0006EFB0020FEF76BFB9920FEF768FB0020B2
:1059E000FEF765FBA820FEF762FB0020FEF75FFBD9
:1059F000B920FEF75CFB0020FEF759FBC420FEF740
:105A000056FB0020FEF753FBCA20FEF750FB002098
:105A1000FEF74DFBD220FEF74AFB0020FEF747FBC6
:105A2000D920FEF744FB0020FEF741FBE020FEF703
:105A30003EFB0020FEF73BFBF320FEF738FB002087
:105A4000FEF735FBE120FEF729FB1620FEF72FFBC2
:105A50000020FEF72CFB1C20FEF729FB0020FEF7A0
:105A600026FB2220FEF723FB0020FEF720FB36203A
:105A7000FEF71DFB0020FEF71AFB4520FEF717FB83
:105A80000020FEF714FB5220FEF711FB0020FEF76A
:105A90000EFB6420FEF70BFB0020FEF708FB7A20CC
:105AA000FEF705FB0020FEF702FB8B20FEF7FFFA56
:105AB0000020FEF7FCFA9920FEF7F9FA0020FEF725
:105AC000F6FAA820FEF7F3FA0020FEF7F0FAB92064
:105AD000FEF7EDFA0020FEF7EAFAC420FEF7E7FA37
